{
  "_format": "hh-sol-artifact-1",
  "contractName": "Guardians",
  "sourceName": "contracts/Guardians.sol",
  "abi": [
    {
      "inputs": [
        {
          "internalType": "uint256",
          "name": "_minStackingValue",
          "type": "uint256"
        }
      ],
      "stateMutability": "nonpayable",
      "type": "constructor"
    },
    {
      "inputs": [],
      "name": "AuctionHouse_refundUnsuccess",
      "type": "error"
    },
    {
      "anonymous": false,
      "inputs": [
        {
          "indexed": true,
          "internalType": "address",
          "name": "guardian",
          "type": "address"
        },
        {
          "indexed": false,
          "internalType": "string",
          "name": "name",
          "type": "string"
        },
        {
          "indexed": false,
          "internalType": "string",
          "name": "location",
          "type": "string"
        },
        {
          "indexed": false,
          "internalType": "uint256",
          "name": "stacking",
          "type": "uint256"
        }
      ],
      "name": "GuardianAdded",
      "type": "event"
    },
    {
      "anonymous": false,
      "inputs": [
        {
          "indexed": true,
          "internalType": "address",
          "name": "guardian",
          "type": "address"
        },
        {
          "indexed": false,
          "internalType": "uint256",
          "name": "amount",
          "type": "uint256"
        }
      ],
      "name": "GuardianWithdraw",
      "type": "event"
    },
    {
      "anonymous": false,
      "inputs": [
        {
          "indexed": true,
          "internalType": "address",
          "name": "guardian",
          "type": "address"
        },
        {
          "indexed": false,
          "internalType": "uint256",
          "name": "tokenId",
          "type": "uint256"
        }
      ],
      "name": "ItemAdded",
      "type": "event"
    },
    {
      "anonymous": false,
      "inputs": [
        {
          "indexed": true,
          "internalType": "address",
          "name": "guardian",
          "type": "address"
        },
        {
          "indexed": true,
          "internalType": "address",
          "name": "owner",
          "type": "address"
        },
        {
          "indexed": true,
          "internalType": "uint256",
          "name": "tokenId",
          "type": "uint256"
        },
        {
          "indexed": false,
          "internalType": "uint256",
          "name": "refundPrice",
          "type": "uint256"
        }
      ],
      "name": "ItemBreakRefund",
      "type": "event"
    },
    {
      "anonymous": false,
      "inputs": [
        {
          "indexed": true,
          "internalType": "address",
          "name": "guardian",
          "type": "address"
        },
        {
          "indexed": false,
          "internalType": "uint256",
          "name": "tokenId",
          "type": "uint256"
        }
      ],
      "name": "ItemRedeem",
      "type": "event"
    },
    {
      "anonymous": false,
      "inputs": [
        {
          "indexed": true,
          "internalType": "address",
          "name": "previousOwner",
          "type": "address"
        },
        {
          "indexed": true,
          "internalType": "address",
          "name": "newOwner",
          "type": "address"
        }
      ],
      "name": "OwnershipTransferred",
      "type": "event"
    },
    {
      "inputs": [
        {
          "internalType": "address",
          "name": "_guardian",
          "type": "address"
        },
        {
          "internalType": "uint256",
          "name": "_tokenId",
          "type": "uint256"
        }
      ],
      "name": "addItems",
      "outputs": [],
      "stateMutability": "nonpayable",
      "type": "function"
    },
    {
      "inputs": [
        {
          "internalType": "string",
          "name": "_name",
          "type": "string"
        },
        {
          "internalType": "string",
          "name": "_location",
          "type": "string"
        }
      ],
      "name": "applyGuardian",
      "outputs": [],
      "stateMutability": "payable",
      "type": "function"
    },
    {
      "inputs": [
        {
          "internalType": "address",
          "name": "_guardian",
          "type": "address"
        },
        {
          "internalType": "uint256",
          "name": "_tokenId",
          "type": "uint256"
        }
      ],
      "name": "assetInGuardian",
      "outputs": [
        {
          "internalType": "bool",
          "name": "",
          "type": "bool"
        }
      ],
      "stateMutability": "view",
      "type": "function"
    },
    {
      "inputs": [
        {
          "internalType": "address",
          "name": "_guardian",
          "type": "address"
        },
        {
          "internalType": "address",
          "name": "_owner",
          "type": "address"
        },
        {
          "internalType": "uint256",
          "name": "_tokenId",
          "type": "uint256"
        },
        {
          "internalType": "uint256",
          "name": "_refundPrice",
          "type": "uint256"
        }
      ],
      "name": "breakRefund",
      "outputs": [],
      "stateMutability": "nonpayable",
      "type": "function"
    },
    {
      "inputs": [
        {
          "internalType": "address",
          "name": "_guardian",
          "type": "address"
        }
      ],
      "name": "guardianStacking",
      "outputs": [
        {
          "internalType": "uint256",
          "name": "",
          "type": "uint256"
        }
      ],
      "stateMutability": "view",
      "type": "function"
    },
    {
      "inputs": [
        {
          "internalType": "address",
          "name": "_guardian",
          "type": "address"
        }
      ],
      "name": "isGuardians",
      "outputs": [
        {
          "internalType": "bool",
          "name": "",
          "type": "bool"
        }
      ],
      "stateMutability": "view",
      "type": "function"
    },
    {
      "inputs": [],
      "name": "owner",
      "outputs": [
        {
          "internalType": "address",
          "name": "",
          "type": "address"
        }
      ],
      "stateMutability": "view",
      "type": "function"
    },
    {
      "inputs": [
        {
          "internalType": "address",
          "name": "_guardian",
          "type": "address"
        },
        {
          "internalType": "uint256",
          "name": "_tokenId",
          "type": "uint256"
        }
      ],
      "name": "redeemAsset",
      "outputs": [],
      "stateMutability": "nonpayable",
      "type": "function"
    },
    {
      "inputs": [],
      "name": "renounceOwnership",
      "outputs": [],
      "stateMutability": "nonpayable",
      "type": "function"
    },
    {
      "inputs": [],
      "name": "s_minStackingValue",
      "outputs": [
        {
          "internalType": "uint256",
          "name": "",
          "type": "uint256"
        }
      ],
      "stateMutability": "view",
      "type": "function"
    },
    {
      "inputs": [
        {
          "internalType": "address",
          "name": "_auctionNftAddress",
          "type": "address"
        }
      ],
      "name": "setAuctionNft",
      "outputs": [],
      "stateMutability": "nonpayable",
      "type": "function"
    },
    {
      "inputs": [
        {
          "internalType": "address",
          "name": "newOwner",
          "type": "address"
        }
      ],
      "name": "transferOwnership",
      "outputs": [],
      "stateMutability": "nonpayable",
      "type": "function"
    },
    {
      "inputs": [],
      "name": "withdrawGuardianStacking",
      "outputs": [],
      "stateMutability": "nonpayable",
      "type": "function"
    }
  ],
  "bytecode": "0x60a06040523480156200001157600080fd5b5060405162001d1838038062001d1883398181016040528101906200003791906200017c565b60016000819055506200005f620000536200006e60201b60201c565b6200007660201b60201c565b806080818152505050620001ae565b600033905090565b6000600160009054906101000a900473ffffffffffffffffffffffffffffffffffffffff16905081600160006101000a81548173ffffffffffffffffffffffffffffffffffffffff021916908373ffffffffffffffffffffffffffffffffffffffff1602179055508173ffffffffffffffffffffffffffffffffffffffff168173ffffffffffffffffffffffffffffffffffffffff167f8be0079c531659141344cd1fd0a4f28419497f9722a3daafe3b4186f6b6457e060405160405180910390a35050565b600080fd5b6000819050919050565b620001568162000141565b81146200016257600080fd5b50565b60008151905062000176816200014b565b92915050565b6000602082840312156200019557620001946200013c565b5b6000620001a58482850162000165565b91505092915050565b608051611b47620001d1600039600081816107ca0152610b2d0152611b476000f3fe6080604052600436106100c25760003560e01c806380d14b151161007f578063c6121e6511610059578063c6121e651461021f578063e096c7d91461025c578063e2139def14610285578063f2fde38b146102c2576100c2565b806380d14b15146101a05780638da5cb5b146101c9578063bd578f23146101f4576100c2565b806325ed4114146100c757806348f85b07146100de578063493799ea1461011b5780636deea29c146101445780636f095f101461016d578063715018a614610189575b600080fd5b3480156100d357600080fd5b506100dc6102eb565b005b3480156100ea57600080fd5b506101056004803603810190610100919061116a565b610594565b60405161011291906111c5565b60405180910390f35b34801561012757600080fd5b50610142600480360381019061013d91906111e0565b610602565b005b34801561015057600080fd5b5061016b6004803603810190610166919061116a565b61064e565b005b61018760048036038101906101829190611353565b6107c8565b005b34801561019557600080fd5b5061019e610900565b005b3480156101ac57600080fd5b506101c760048036038101906101c291906113cb565b610914565b005b3480156101d557600080fd5b506101de610b01565b6040516101eb9190611441565b60405180910390f35b34801561020057600080fd5b50610209610b2b565b604051610216919061146b565b60405180910390f35b34801561022b57600080fd5b50610246600480360381019061024191906111e0565b610b4f565b604051610253919061146b565b60405180910390f35b34801561026857600080fd5b50610283600480360381019061027e919061116a565b610b9b565b005b34801561029157600080fd5b506102ac60048036038101906102a791906111e0565b610d3b565b6040516102b991906111c5565b60405180910390f35b3480156102ce57600080fd5b506102e960048036038101906102e491906111e0565b610d89565b005b6102f3610e0d565b600033905061030181610d3b565b610340576040517f08c379a0000000000000000000000000000000000000000000000000000000008152600401610337906114e3565b60405180910390fd5b6000600260008373ffffffffffffffffffffffffffffffffffffffff1673ffffffffffffffffffffffffffffffffffffffff168152602001908152602001600020905060008160030154146103ca576040517f08c379a00000000000000000000000000000000000000000000000000000000081526004016103c19061154f565b60405180910390fd5b6000816004015411610411576040517f08c379a0000000000000000000000000000000000000000000000000000000008152600401610408906115bb565b60405180910390fd5b600081600401549050600260008473ffffffffffffffffffffffffffffffffffffffff1673ffffffffffffffffffffffffffffffffffffffff1681526020019081526020016000206000808201600061046a9190610fdf565b60018201600061047a9190610fdf565b60038201600090556004820160009055505060008373ffffffffffffffffffffffffffffffffffffffff16826040516104b29061160c565b60006040518083038185875af1925050503d80600081146104ef576040519150601f19603f3d011682016040523d82523d6000602084013e6104f4565b606091505b5050905080610538576040517f08c379a000000000000000000000000000000000000000000000000000000000815260040161052f9061166d565b60405180910390fd5b8373ffffffffffffffffffffffffffffffffffffffff167fbf4b16921e38f358e994469d31459fda2ae4a3ceafc97a1af2605cfc2a0a3f278360405161057e919061146b565b60405180910390a250505050610592610e5d565b565b6000600260008473ffffffffffffffffffffffffffffffffffffffff1673ffffffffffffffffffffffffffffffffffffffff168152602001908152602001600020600201600083815260200190815260200160002060010160009054906101000a900460ff16905092915050565b61060a610e67565b80600360006101000a81548173ffffffffffffffffffffffffffffffffffffffff021916908373ffffffffffffffffffffffffffffffffffffffff16021790555050565b600360009054906101000a900473ffffffffffffffffffffffffffffffffffffffff1673ffffffffffffffffffffffffffffffffffffffff163373ffffffffffffffffffffffffffffffffffffffff16146106de576040517f08c379a00000000000000000000000000000000000000000000000000000000081526004016106d5906116d9565b60405180910390fd5b6000600260008473ffffffffffffffffffffffffffffffffffffffff1673ffffffffffffffffffffffffffffffffffffffff168152602001908152602001600020905061073960018260030154610ee590919063ffffffff16565b81600301819055508060020160008381526020019081526020016000206000808201600090556001820160006101000a81549060ff021916905550508273ffffffffffffffffffffffffffffffffffffffff167fface74a7025e28b51ce8f8a5c7b865349bad4075e98adcf0ad97bd777e7b3f72836040516107bb919061146b565b60405180910390a2505050565b7f000000000000000000000000000000000000000000000000000000000000000034101561082b576040517f08c379a000000000000000000000000000000000000000000000000000000000815260040161082290611745565b60405180910390fd5b6000600260003373ffffffffffffffffffffffffffffffffffffffff1673ffffffffffffffffffffffffffffffffffffffff16815260200190815260200160002090508281600001908051906020019061088692919061101f565b508181600101908051906020019061089f92919061101f565b503481600401819055503373ffffffffffffffffffffffffffffffffffffffff167ffa1a84d1d70e22f13d4467830fdd49dee6f3b856e2a7496fc410b04a796bc3708484346040516108f3939291906117dc565b60405180910390a2505050565b610908610e67565b6109126000610efb565b565b80600260008673ffffffffffffffffffffffffffffffffffffffff1673ffffffffffffffffffffffffffffffffffffffff1681526020019081526020016000206004015411610998576040517f08c379a000000000000000000000000000000000000000000000000000000000815260040161098f9061186d565b60405180910390fd5b80600260008673ffffffffffffffffffffffffffffffffffffffff1673ffffffffffffffffffffffffffffffffffffffff16815260200190815260200160002060040160008282546109ea91906118bc565b9250508190555060008373ffffffffffffffffffffffffffffffffffffffff1682604051610a179061160c565b60006040518083038185875af1925050503d8060008114610a54576040519150601f19603f3d011682016040523d82523d6000602084013e610a59565b606091505b5050905080610a94576040517fdff0f51900000000000000000000000000000000000000000000000000000000815260040160405180910390fd5b828473ffffffffffffffffffffffffffffffffffffffff168673ffffffffffffffffffffffffffffffffffffffff167fd124b6d9d1b8768be72a66e1615675e505ca46dffa380498c7f78cbbc13251db85604051610af2919061146b565b60405180910390a45050505050565b6000600160009054906101000a900473ffffffffffffffffffffffffffffffffffffffff16905090565b7f000000000000000000000000000000000000000000000000000000000000000081565b6000600260008373ffffffffffffffffffffffffffffffffffffffff1673ffffffffffffffffffffffffffffffffffffffff168152602001908152602001600020600401549050919050565b600360009054906101000a900473ffffffffffffffffffffffffffffffffffffffff1673ffffffffffffffffffffffffffffffffffffffff163373ffffffffffffffffffffffffffffffffffffffff1614610c2b576040517f08c379a0000000000000000000000000000000000000000000000000000000008152600401610c22906116d9565b60405180910390fd5b6000600260008473ffffffffffffffffffffffffffffffffffffffff1673ffffffffffffffffffffffffffffffffffffffff16815260200190815260200160002090506040518060400160405280838152602001600115158152508160020160008481526020019081526020016000206000820151816000015560208201518160010160006101000a81548160ff021916908315150217905550905050610ce060018260030154610fc190919063ffffffff16565b81600301819055508273ffffffffffffffffffffffffffffffffffffffff167fbb93286bf5aa4db648045b04d0566e215c1df5d898c5f576bc6cb5ce6a1860d183604051610d2e919061146b565b60405180910390a2505050565b600080600260008473ffffffffffffffffffffffffffffffffffffffff1673ffffffffffffffffffffffffffffffffffffffff16815260200190815260200160002060040154119050919050565b610d91610e67565b600073ffffffffffffffffffffffffffffffffffffffff168173ffffffffffffffffffffffffffffffffffffffff161415610e01576040517f08c379a0000000000000000000000000000000000000000000000000000000008152600401610df890611962565b60405180910390fd5b610e0a81610efb565b50565b60026000541415610e53576040517f08c379a0000000000000000000000000000000000000000000000000000000008152600401610e4a906119ce565b60405180910390fd5b6002600081905550565b6001600081905550565b610e6f610fd7565b73ffffffffffffffffffffffffffffffffffffffff16610e8d610b01565b73ffffffffffffffffffffffffffffffffffffffff1614610ee3576040517f08c379a0000000000000000000000000000000000000000000000000000000008152600401610eda90611a3a565b60405180910390fd5b565b60008183610ef391906118bc565b905092915050565b6000600160009054906101000a900473ffffffffffffffffffffffffffffffffffffffff16905081600160006101000a81548173ffffffffffffffffffffffffffffffffffffffff021916908373ffffffffffffffffffffffffffffffffffffffff1602179055508173ffffffffffffffffffffffffffffffffffffffff168173ffffffffffffffffffffffffffffffffffffffff167f8be0079c531659141344cd1fd0a4f28419497f9722a3daafe3b4186f6b6457e060405160405180910390a35050565b60008183610fcf9190611a5a565b905092915050565b600033905090565b508054610feb90611adf565b6000825580601f10610ffd575061101c565b601f01602090049060005260206000209081019061101b91906110a5565b5b50565b82805461102b90611adf565b90600052602060002090601f01602090048101928261104d5760008555611094565b82601f1061106657805160ff1916838001178555611094565b82800160010185558215611094579182015b82811115611093578251825591602001919060010190611078565b5b5090506110a191906110a5565b5090565b5b808211156110be5760008160009055506001016110a6565b5090565b6000604051905090565b600080fd5b600080fd5b600073ffffffffffffffffffffffffffffffffffffffff82169050919050565b6000611101826110d6565b9050919050565b611111816110f6565b811461111c57600080fd5b50565b60008135905061112e81611108565b92915050565b6000819050919050565b61114781611134565b811461115257600080fd5b50565b6000813590506111648161113e565b92915050565b60008060408385031215611181576111806110cc565b5b600061118f8582860161111f565b92505060206111a085828601611155565b9150509250929050565b60008115159050919050565b6111bf816111aa565b82525050565b60006020820190506111da60008301846111b6565b92915050565b6000602082840312156111f6576111f56110cc565b5b60006112048482850161111f565b91505092915050565b600080fd5b600080fd5b6000601f19601f8301169050919050565b7f4e487b7100000000000000000000000000000000000000000000000000000000600052604160045260246000fd5b61126082611217565b810181811067ffffffffffffffff8211171561127f5761127e611228565b5b80604052505050565b60006112926110c2565b905061129e8282611257565b919050565b600067ffffffffffffffff8211156112be576112bd611228565b5b6112c782611217565b9050602081019050919050565b82818337600083830152505050565b60006112f66112f1846112a3565b611288565b90508281526020810184848401111561131257611311611212565b5b61131d8482856112d4565b509392505050565b600082601f83011261133a5761133961120d565b5b813561134a8482602086016112e3565b91505092915050565b6000806040838503121561136a576113696110cc565b5b600083013567ffffffffffffffff811115611388576113876110d1565b5b61139485828601611325565b925050602083013567ffffffffffffffff8111156113b5576113b46110d1565b5b6113c185828601611325565b9150509250929050565b600080600080608085870312156113e5576113e46110cc565b5b60006113f38782880161111f565b94505060206114048782880161111f565b935050604061141587828801611155565b925050606061142687828801611155565b91505092959194509250565b61143b816110f6565b82525050565b60006020820190506114566000830184611432565b92915050565b61146581611134565b82525050565b6000602082019050611480600083018461145c565b92915050565b600082825260208201905092915050565b7f4f6e6c7920677561726469616e732063616e2077697468647261770000000000600082015250565b60006114cd601b83611486565b91506114d882611497565b602082019050919050565b600060208201905081810360008301526114fc816114c0565b9050919050565b7f477561726469616e207374696c6c20686173206974656d730000000000000000600082015250565b6000611539601883611486565b915061154482611503565b602082019050919050565b600060208201905081810360008301526115688161152c565b9050919050565b7f477561726469616e20737461636b696e6720697320656d707479000000000000600082015250565b60006115a5601a83611486565b91506115b08261156f565b602082019050919050565b600060208201905081810360008301526115d481611598565b9050919050565b600081905092915050565b50565b60006115f66000836115db565b9150611601826115e6565b600082019050919050565b6000611617826115e9565b9150819050919050565b7f526566756e6420756e7375636365737366756c00000000000000000000000000600082015250565b6000611657601383611486565b915061166282611621565b602082019050919050565b600060208201905081810360008301526116868161164a565b9050919050565b7f6f6e6c792061626c652063616c6c2062792041756374696f6e4e465400000000600082015250565b60006116c3601c83611486565b91506116ce8261168d565b602082019050919050565b600060208201905081810360008301526116f2816116b6565b9050919050565b7f4e6f7420656e6f7567687420746f207374616b696e6700000000000000000000600082015250565b600061172f601683611486565b915061173a826116f9565b602082019050919050565b6000602082019050818103600083015261175e81611722565b9050919050565b600081519050919050565b60005b8381101561178e578082015181840152602081019050611773565b8381111561179d576000848401525b50505050565b60006117ae82611765565b6117b88185611486565b93506117c8818560208601611770565b6117d181611217565b840191505092915050565b600060608201905081810360008301526117f681866117a3565b9050818103602083015261180a81856117a3565b9050611819604083018461145c565b949350505050565b7f4e6f7420656e6f7567682046756e6420746f2072657475726e00000000000000600082015250565b6000611857601983611486565b915061186282611821565b602082019050919050565b600060208201905081810360008301526118868161184a565b9050919050565b7f4e487b7100000000000000000000000000000000000000000000000000000000600052601160045260246000fd5b60006118c782611134565b91506118d283611134565b9250828210156118e5576118e461188d565b5b828203905092915050565b7f4f776e61626c653a206e6577206f776e657220697320746865207a65726f206160008201527f6464726573730000000000000000000000000000000000000000000000000000602082015250565b600061194c602683611486565b9150611957826118f0565b604082019050919050565b6000602082019050818103600083015261197b8161193f565b9050919050565b7f5265656e7472616e637947756172643a207265656e7472616e742063616c6c00600082015250565b60006119b8601f83611486565b91506119c382611982565b602082019050919050565b600060208201905081810360008301526119e7816119ab565b9050919050565b7f4f776e61626c653a2063616c6c6572206973206e6f7420746865206f776e6572600082015250565b6000611a24602083611486565b9150611a2f826119ee565b602082019050919050565b60006020820190508181036000830152611a5381611a17565b9050919050565b6000611a6582611134565b9150611a7083611134565b9250827fffffffffffffffffffffffffffffffffffffffffffffffffffffffffffffffff03821115611aa557611aa461188d565b5b828201905092915050565b7f4e487b7100000000000000000000000000000000000000000000000000000000600052602260045260246000fd5b60006002820490506001821680611af757607f821691505b60208210811415611b0b57611b0a611ab0565b5b5091905056fea26469706673582212202026dc3d909cf1fbbb4155686fa98a7e7a69613f73ac478f111132437e90af6e64736f6c63430008080033",
  "linkReferences": {},
  "deployedLinkReferences": {}
}