{
  "_format": "hh-sol-artifact-1",
  "contractName": "AuctionHouse",
  "sourceName": "contracts/AuctionHouse.sol",
  "abi": [
    {
      "inputs": [
        {
          "internalType": "uint256",
          "name": "_minStackingValue",
          "type": "uint256"
        }
      ],
      "stateMutability": "nonpayable",
      "type": "constructor"
    },
    {
      "inputs": [],
      "name": "AuctionHouse_refundUnsuccess",
      "type": "error"
    },
    {
      "inputs": [],
      "name": "OnlySimulatedBackend",
      "type": "error"
    },
    {
      "anonymous": false,
      "inputs": [
        {
          "indexed": true,
          "internalType": "address",
          "name": "seller",
          "type": "address"
        },
        {
          "indexed": true,
          "internalType": "uint256",
          "name": "tokenId",
          "type": "uint256"
        },
        {
          "indexed": true,
          "internalType": "address",
          "name": "guardian",
          "type": "address"
        }
      ],
      "name": "AssertListed",
      "type": "event"
    },
    {
      "anonymous": false,
      "inputs": [
        {
          "indexed": true,
          "internalType": "uint256",
          "name": "tokenId",
          "type": "uint256"
        }
      ],
      "name": "AuctionEnd",
      "type": "event"
    },
    {
      "anonymous": false,
      "inputs": [
        {
          "indexed": true,
          "internalType": "address",
          "name": "guardian",
          "type": "address"
        },
        {
          "indexed": false,
          "internalType": "string",
          "name": "name",
          "type": "string"
        },
        {
          "indexed": false,
          "internalType": "string",
          "name": "location",
          "type": "string"
        },
        {
          "indexed": false,
          "internalType": "uint256",
          "name": "stacking",
          "type": "uint256"
        }
      ],
      "name": "GuardianAdded",
      "type": "event"
    },
    {
      "anonymous": false,
      "inputs": [
        {
          "indexed": true,
          "internalType": "address",
          "name": "guardian",
          "type": "address"
        },
        {
          "indexed": false,
          "internalType": "uint256",
          "name": "amount",
          "type": "uint256"
        }
      ],
      "name": "GuardianWithdraw",
      "type": "event"
    },
    {
      "anonymous": false,
      "inputs": [
        {
          "indexed": true,
          "internalType": "address",
          "name": "guardian",
          "type": "address"
        },
        {
          "indexed": false,
          "internalType": "uint256",
          "name": "tokenId",
          "type": "uint256"
        }
      ],
      "name": "ItemAdded",
      "type": "event"
    },
    {
      "anonymous": false,
      "inputs": [
        {
          "indexed": true,
          "internalType": "address",
          "name": "guardian",
          "type": "address"
        },
        {
          "indexed": true,
          "internalType": "address",
          "name": "owner",
          "type": "address"
        },
        {
          "indexed": true,
          "internalType": "uint256",
          "name": "tokenId",
          "type": "uint256"
        },
        {
          "indexed": false,
          "internalType": "uint256",
          "name": "refundPrice",
          "type": "uint256"
        }
      ],
      "name": "ItemBreakRefund",
      "type": "event"
    },
    {
      "anonymous": false,
      "inputs": [
        {
          "indexed": true,
          "internalType": "address",
          "name": "guardian",
          "type": "address"
        },
        {
          "indexed": false,
          "internalType": "uint256",
          "name": "tokenId",
          "type": "uint256"
        }
      ],
      "name": "ItemRedeem",
      "type": "event"
    },
    {
      "anonymous": false,
      "inputs": [
        {
          "indexed": true,
          "internalType": "uint256",
          "name": "tokneId",
          "type": "uint256"
        }
      ],
      "name": "ListingCancel",
      "type": "event"
    },
    {
      "anonymous": false,
      "inputs": [
        {
          "indexed": true,
          "internalType": "uint256",
          "name": "tokenId",
          "type": "uint256"
        }
      ],
      "name": "ListingSell",
      "type": "event"
    },
    {
      "anonymous": false,
      "inputs": [
        {
          "indexed": true,
          "internalType": "address",
          "name": "previousOwner",
          "type": "address"
        },
        {
          "indexed": true,
          "internalType": "address",
          "name": "newOwner",
          "type": "address"
        }
      ],
      "name": "OwnershipTransferred",
      "type": "event"
    },
    {
      "anonymous": false,
      "inputs": [
        {
          "indexed": true,
          "internalType": "address",
          "name": "user",
          "type": "address"
        },
        {
          "indexed": false,
          "internalType": "uint256",
          "name": "proceeds",
          "type": "uint256"
        }
      ],
      "name": "ProceedsWithdraw",
      "type": "event"
    },
    {
      "anonymous": false,
      "inputs": [
        {
          "indexed": true,
          "internalType": "address",
          "name": "buyer",
          "type": "address"
        },
        {
          "indexed": true,
          "internalType": "uint256",
          "name": "tokenId",
          "type": "uint256"
        },
        {
          "indexed": false,
          "internalType": "uint256",
          "name": "bidPrice",
          "type": "uint256"
        }
      ],
      "name": "SubmittedBid",
      "type": "event"
    },
    {
      "inputs": [],
      "name": "MINBIDINTERVAL",
      "outputs": [
        {
          "internalType": "uint256",
          "name": "",
          "type": "uint256"
        }
      ],
      "stateMutability": "view",
      "type": "function"
    },
    {
      "inputs": [
        {
          "internalType": "address",
          "name": "_guardian",
          "type": "address"
        },
        {
          "internalType": "uint256",
          "name": "_tokenId",
          "type": "uint256"
        }
      ],
      "name": "addItems",
      "outputs": [],
      "stateMutability": "nonpayable",
      "type": "function"
    },
    {
      "inputs": [
        {
          "internalType": "string",
          "name": "_name",
          "type": "string"
        },
        {
          "internalType": "string",
          "name": "_location",
          "type": "string"
        }
      ],
      "name": "applyGuardian",
      "outputs": [],
      "stateMutability": "payable",
      "type": "function"
    },
    {
      "inputs": [
        {
          "internalType": "address",
          "name": "_guardian",
          "type": "address"
        },
        {
          "internalType": "uint256",
          "name": "_tokenId",
          "type": "uint256"
        }
      ],
      "name": "assetInGuardian",
      "outputs": [
        {
          "internalType": "bool",
          "name": "",
          "type": "bool"
        }
      ],
      "stateMutability": "view",
      "type": "function"
    },
    {
      "inputs": [
        {
          "internalType": "uint256",
          "name": "_tokenId",
          "type": "uint256"
        }
      ],
      "name": "bid",
      "outputs": [],
      "stateMutability": "payable",
      "type": "function"
    },
    {
      "inputs": [
        {
          "internalType": "address",
          "name": "_guardian",
          "type": "address"
        },
        {
          "internalType": "address",
          "name": "_owner",
          "type": "address"
        },
        {
          "internalType": "uint256",
          "name": "_tokenId",
          "type": "uint256"
        },
        {
          "internalType": "uint256",
          "name": "_refundPrice",
          "type": "uint256"
        }
      ],
      "name": "breakRefund",
      "outputs": [],
      "stateMutability": "nonpayable",
      "type": "function"
    },
    {
      "inputs": [
        {
          "internalType": "uint256",
          "name": "_tokenId",
          "type": "uint256"
        }
      ],
      "name": "cancelListing",
      "outputs": [],
      "stateMutability": "nonpayable",
      "type": "function"
    },
    {
      "inputs": [
        {
          "internalType": "bytes",
          "name": "",
          "type": "bytes"
        }
      ],
      "name": "checkUpkeep",
      "outputs": [
        {
          "internalType": "bool",
          "name": "upkeepNeeded",
          "type": "bool"
        },
        {
          "internalType": "bytes",
          "name": "performData",
          "type": "bytes"
        }
      ],
      "stateMutability": "view",
      "type": "function"
    },
    {
      "inputs": [
        {
          "internalType": "address",
          "name": "_guardian",
          "type": "address"
        }
      ],
      "name": "guardianStacking",
      "outputs": [
        {
          "internalType": "uint256",
          "name": "",
          "type": "uint256"
        }
      ],
      "stateMutability": "view",
      "type": "function"
    },
    {
      "inputs": [
        {
          "internalType": "address",
          "name": "_guardian",
          "type": "address"
        }
      ],
      "name": "isGuardians",
      "outputs": [
        {
          "internalType": "bool",
          "name": "",
          "type": "bool"
        }
      ],
      "stateMutability": "view",
      "type": "function"
    },
    {
      "inputs": [
        {
          "internalType": "uint256",
          "name": "tokenId",
          "type": "uint256"
        }
      ],
      "name": "isListing",
      "outputs": [
        {
          "internalType": "bool",
          "name": "",
          "type": "bool"
        }
      ],
      "stateMutability": "view",
      "type": "function"
    },
    {
      "inputs": [
        {
          "internalType": "uint256",
          "name": "_tokenId",
          "type": "uint256"
        },
        {
          "internalType": "uint256",
          "name": "_price",
          "type": "uint256"
        },
        {
          "internalType": "address",
          "name": "_guardian",
          "type": "address"
        },
        {
          "internalType": "uint256",
          "name": "_startAt",
          "type": "uint256"
        },
        {
          "internalType": "uint256",
          "name": "_endAt",
          "type": "uint256"
        }
      ],
      "name": "listAssert",
      "outputs": [],
      "stateMutability": "nonpayable",
      "type": "function"
    },
    {
      "inputs": [],
      "name": "owner",
      "outputs": [
        {
          "internalType": "address",
          "name": "",
          "type": "address"
        }
      ],
      "stateMutability": "view",
      "type": "function"
    },
    {
      "inputs": [
        {
          "internalType": "bytes",
          "name": "performData",
          "type": "bytes"
        }
      ],
      "name": "performUpkeep",
      "outputs": [],
      "stateMutability": "nonpayable",
      "type": "function"
    },
    {
      "inputs": [
        {
          "internalType": "address",
          "name": "_guardian",
          "type": "address"
        },
        {
          "internalType": "uint256",
          "name": "_tokenId",
          "type": "uint256"
        }
      ],
      "name": "redeemAsset",
      "outputs": [],
      "stateMutability": "nonpayable",
      "type": "function"
    },
    {
      "inputs": [],
      "name": "renounceOwnership",
      "outputs": [],
      "stateMutability": "nonpayable",
      "type": "function"
    },
    {
      "inputs": [
        {
          "internalType": "uint256",
          "name": "",
          "type": "uint256"
        }
      ],
      "name": "s_listings",
      "outputs": [
        {
          "internalType": "address",
          "name": "seller",
          "type": "address"
        },
        {
          "internalType": "uint256",
          "name": "price",
          "type": "uint256"
        },
        {
          "internalType": "uint256",
          "name": "netPrice",
          "type": "uint256"
        },
        {
          "internalType": "enum AuctionNftStatus",
          "name": "status",
          "type": "uint8"
        },
        {
          "internalType": "uint256",
          "name": "startAt",
          "type": "uint256"
        },
        {
          "internalType": "uint256",
          "name": "endAt",
          "type": "uint256"
        }
      ],
      "stateMutability": "view",
      "type": "function"
    },
    {
      "inputs": [
        {
          "internalType": "uint256",
          "name": "",
          "type": "uint256"
        }
      ],
      "name": "s_listingsCounter",
      "outputs": [
        {
          "internalType": "uint256",
          "name": "",
          "type": "uint256"
        }
      ],
      "stateMutability": "view",
      "type": "function"
    },
    {
      "inputs": [],
      "name": "s_minStackingValue",
      "outputs": [
        {
          "internalType": "uint256",
          "name": "",
          "type": "uint256"
        }
      ],
      "stateMutability": "view",
      "type": "function"
    },
    {
      "inputs": [
        {
          "internalType": "address",
          "name": "",
          "type": "address"
        }
      ],
      "name": "s_proceeds",
      "outputs": [
        {
          "internalType": "uint256",
          "name": "",
          "type": "uint256"
        }
      ],
      "stateMutability": "view",
      "type": "function"
    },
    {
      "inputs": [
        {
          "internalType": "address",
          "name": "_auctionNftAddress",
          "type": "address"
        }
      ],
      "name": "setAuctionNft",
      "outputs": [],
      "stateMutability": "nonpayable",
      "type": "function"
    },
    {
      "inputs": [
        {
          "internalType": "address",
          "name": "newOwner",
          "type": "address"
        }
      ],
      "name": "transferOwnership",
      "outputs": [],
      "stateMutability": "nonpayable",
      "type": "function"
    },
    {
      "inputs": [],
      "name": "withdrawGuardianStacking",
      "outputs": [],
      "stateMutability": "nonpayable",
      "type": "function"
    },
    {
      "inputs": [],
      "name": "withdrawProceeds",
      "outputs": [],
      "stateMutability": "nonpayable",
      "type": "function"
    }
  ],
  "bytecode": "0x60a06040523480156200001157600080fd5b50604051620043383803806200433883398181016040528101906200003791906200017e565b80600160008190555062000060620000546200007060201b60201c565b6200007860201b60201c565b80608081815250505050620001b0565b600033905090565b6000600160009054906101000a900473ffffffffffffffffffffffffffffffffffffffff16905081600160006101000a81548173ffffffffffffffffffffffffffffffffffffffff021916908373ffffffffffffffffffffffffffffffffffffffff1602179055508173ffffffffffffffffffffffffffffffffffffffff168173ffffffffffffffffffffffffffffffffffffffff167f8be0079c531659141344cd1fd0a4f28419497f9722a3daafe3b4186f6b6457e060405160405180910390a35050565b600080fd5b6000819050919050565b620001588162000143565b81146200016457600080fd5b50565b60008151905062000178816200014d565b92915050565b6000602082840312156200019757620001966200013e565b5b6000620001a78482850162000167565b91505092915050565b608051614165620001d36000396000818161132d0152611c1701526141656000f3fe60806040526004361061014b5760003560e01c8063715018a6116100b6578063bd578f231161006f578063bd578f231461044b578063c477376114610476578063c6121e65146104b8578063e096c7d9146104f5578063e2139def1461051e578063f2fde38b1461055b5761014b565b8063715018a61461037557806380d14b151461038c5780638cb4e0b8146103b55780638da5cb5b146103e05780639038e6931461040b5780639ac8c855146104225761014b565b80634585e33b116101085780634585e33b1461026357806348f85b071461028c578063493799ea146102c95780636deea29c146102f25780636e04ff0d1461031b5780636f095f10146103595761014b565b8063036df666146101505780631d72954d1461018d57806325ed4114146101ca5780633057ae7d146101e1578063305a67a81461021e578063454a2ab314610247575b600080fd5b34801561015c57600080fd5b50610177600480360381019061017291906129c4565b610584565b6040516101849190612a0a565b60405180910390f35b34801561019957600080fd5b506101b460048036038101906101af9190612a51565b61059c565b6040516101c19190612a0a565b60405180910390f35b3480156101d657600080fd5b506101df6105c0565b005b3480156101ed57600080fd5b5061020860048036038101906102039190612a51565b610869565b6040516102159190612a99565b60405180910390f35b34801561022a57600080fd5b5061024560048036038101906102409190612a51565b6108bd565b005b610261600480360381019061025c9190612a51565b6109d1565b005b34801561026f57600080fd5b5061028a60048036038101906102859190612b19565b610d7b565b005b34801561029857600080fd5b506102b360048036038101906102ae9190612b66565b610e2d565b6040516102c09190612a99565b60405180910390f35b3480156102d557600080fd5b506102f060048036038101906102eb91906129c4565b610e9b565b005b3480156102fe57600080fd5b5061031960048036038101906103149190612b66565b610ee7565b005b34801561032757600080fd5b50610342600480360381019061033d9190612ce7565b611061565b604051610350929190612db8565b60405180910390f35b610373600480360381019061036e9190612e89565b61132b565b005b34801561038157600080fd5b5061038a611463565b005b34801561039857600080fd5b506103b360048036038101906103ae9190612f01565b611477565b005b3480156103c157600080fd5b506103ca611664565b6040516103d79190612a0a565b60405180910390f35b3480156103ec57600080fd5b506103f561166a565b6040516104029190612f77565b60405180910390f35b34801561041757600080fd5b50610420611694565b005b34801561042e57600080fd5b5061044960048036038101906104449190612f92565b61186e565b005b34801561045757600080fd5b50610460611c15565b60405161046d9190612a0a565b60405180910390f35b34801561048257600080fd5b5061049d60048036038101906104989190612a51565b611c39565b6040516104af96959493929190613084565b60405180910390f35b3480156104c457600080fd5b506104df60048036038101906104da91906129c4565b611ca2565b6040516104ec9190612a0a565b60405180910390f35b34801561050157600080fd5b5061051c60048036038101906105179190612b66565b611cee565b005b34801561052a57600080fd5b50610545600480360381019061054091906129c4565b611e8e565b6040516105529190612a99565b60405180910390f35b34801561056757600080fd5b50610582600480360381019061057d91906129c4565b611edc565b005b60066020528060005260406000206000915090505481565b600781815481106105ac57600080fd5b906000526020600020016000915090505481565b6105c8611f60565b60003390506105d681611e8e565b610615576040517f08c379a000000000000000000000000000000000000000000000000000000000815260040161060c90613142565b60405180910390fd5b6000600260008373ffffffffffffffffffffffffffffffffffffffff1673ffffffffffffffffffffffffffffffffffffffff1681526020019081526020016000209050600081600301541461069f576040517f08c379a0000000000000000000000000000000000000000000000000000000008152600401610696906131ae565b60405180910390fd5b60008160040154116106e6576040517f08c379a00000000000000000000000000000000000000000000000000000000081526004016106dd9061321a565b60405180910390fd5b600081600401549050600260008473ffffffffffffffffffffffffffffffffffffffff1673ffffffffffffffffffffffffffffffffffffffff1681526020019081526020016000206000808201600061073f91906127f3565b60018201600061074f91906127f3565b60038201600090556004820160009055505060008373ffffffffffffffffffffffffffffffffffffffff16826040516107879061326b565b60006040518083038185875af1925050503d80600081146107c4576040519150601f19603f3d011682016040523d82523d6000602084013e6107c9565b606091505b505090508061080d576040517f08c379a0000000000000000000000000000000000000000000000000000000008152600401610804906132cc565b60405180910390fd5b8373ffffffffffffffffffffffffffffffffffffffff167fbf4b16921e38f358e994469d31459fda2ae4a3ceafc97a1af2605cfc2a0a3f27836040516108539190612a0a565b60405180910390a250505050610867611fb0565b565b60006001600281111561087f5761087e61300d565b5b6004600084815260200190815260200160002060030160009054906101000a900460ff1660028111156108b5576108b461300d565b5b149050919050565b6108c681610869565b610905576040517f08c379a00000000000000000000000000000000000000000000000000000000081526004016108fc90613338565b60405180910390fd5b6000610912600783611fba565b905061091f600782612051565b60046000838152602001908152602001600020600080820160006101000a81549073ffffffffffffffffffffffffffffffffffffffff0219169055600182016000905560028201600090556003820160006101000a81549060ff02191690556004820160009055600582016000905560068201600061099e9190612833565b5050817f0f3b2ba25e60fad60dd6b71126d121fb34a6c021e783fd96dd501ae1ee12493860405160405180910390a25050565b60006004600083815260200190815260200160002090506002808111156109fb576109fa61300d565b5b8160030160009054906101000a900460ff166002811115610a1f57610a1e61300d565b5b14610a5f576040517f08c379a0000000000000000000000000000000000000000000000000000000008152600401610a56906133a4565b60405180910390fd5b3373ffffffffffffffffffffffffffffffffffffffff168160000160009054906101000a900473ffffffffffffffffffffffffffffffffffffffff1673ffffffffffffffffffffffffffffffffffffffff161415610af2576040517f08c379a0000000000000000000000000000000000000000000000000000000008152600401610ae990613410565b60405180910390fd5b34816002015410610b38576040517f08c379a0000000000000000000000000000000000000000000000000000000008152600401610b2f906134a2565b60405180910390fd5b42816005015411610b7e576040517f08c379a0000000000000000000000000000000000000000000000000000000008152600401610b759061350e565b60405180910390fd5b600081600601805490501015610c5e57600081600601610baf6001846006018054905061213f90919063ffffffff16565b81548110610bc057610bbf61352e565b5b90600052602060002090600302019050610c5b81600001546005600086815260200190815260200160002060008460010160009054906101000a900473ffffffffffffffffffffffffffffffffffffffff1673ffffffffffffffffffffffffffffffffffffffff1673ffffffffffffffffffffffffffffffffffffffff1681526020019081526020016000205461215590919063ffffffff16565b50505b60003490508160060160405180606001604052808381526020013373ffffffffffffffffffffffffffffffffffffffff1681526020014281525090806001815401808255809150506001900390600052602060002090600302016000909190919091506000820151816000015560208201518160010160006101000a81548173ffffffffffffffffffffffffffffffffffffffff021916908373ffffffffffffffffffffffffffffffffffffffff160217905550604082015181600201555050808260020181905550823373ffffffffffffffffffffffffffffffffffffffff167f4ce7bc87ccea1eb00ca1f33cc7fb74603e7173b7f878f1de79752b91e624aa5f83604051610d6e9190612a0a565b60405180910390a3505050565b6000610dbb6040518060400160405280600281526020017f3078000000000000000000000000000000000000000000000000000000000000815250611061565b50905080610dfe576040517f08c379a0000000000000000000000000000000000000000000000000000000008152600401610df5906135a9565b60405180910390fd5b6000808484810190610e10919061368c565b91509150610e1d8261216b565b610e268161221a565b5050505050565b6000600260008473ffffffffffffffffffffffffffffffffffffffff1673ffffffffffffffffffffffffffffffffffffffff168152602001908152602001600020600201600083815260200190815260200160002060010160009054906101000a900460ff16905092915050565b610ea36125c5565b80600360006101000a81548173ffffffffffffffffffffffffffffffffffffffff021916908373ffffffffffffffffffffffffffffffffffffffff16021790555050565b600360009054906101000a900473ffffffffffffffffffffffffffffffffffffffff1673ffffffffffffffffffffffffffffffffffffffff163373ffffffffffffffffffffffffffffffffffffffff1614610f77576040517f08c379a0000000000000000000000000000000000000000000000000000000008152600401610f6e90613750565b60405180910390fd5b6000600260008473ffffffffffffffffffffffffffffffffffffffff1673ffffffffffffffffffffffffffffffffffffffff1681526020019081526020016000209050610fd26001826003015461213f90919063ffffffff16565b81600301819055508060020160008381526020019081526020016000206000808201600090556001820160006101000a81549060ff021916905550508273ffffffffffffffffffffffffffffffffffffffff167fface74a7025e28b51ce8f8a5c7b865349bad4075e98adcf0ad97bd777e7b3f72836040516110549190612a0a565b60405180910390a2505050565b600060606000600780549050905060008167ffffffffffffffff81111561108b5761108a612bbc565b5b6040519080825280602002602001820160405280156110b95781602001602082028036833780820191505090505b50905060008267ffffffffffffffff8111156110d8576110d7612bbc565b5b6040519080825280602002602001820160405280156111065781602001602082028036833780820191505090505b50905060008060005b858110156112fc5760006007828154811061112d5761112c61352e565b5b9060005260206000200154905060006004600083815260200190815260200160002090506111c86040518060400160405280600681526020017f73746174757300000000000000000000000000000000000000000000000000008152506001600281111561119e5761119d61300d565b5b8360030160009054906101000a900460ff1660028111156111c2576111c161300d565b5b14612643565b600160028111156111dc576111db61300d565b5b8160030160009054906101000a900460ff166002811115611200576111ff61300d565b5b148015611211575042816004015411155b80156112205750428160050154115b1561126057600199508187868151811061123d5761123c61352e565b5b60200260200101818152505061125d60018661215590919063ffffffff16565b94505b6002808111156112735761127261300d565b5b8160030160009054906101000a900460ff1660028111156112975761129661300d565b5b1480156112a75750428160050154105b156112e75760019950818685815181106112c4576112c361352e565b5b6020026020010181815250506112e460018561215590919063ffffffff16565b93505b505080806112f49061379f565b91505061110f565b5083836040516020016113109291906138a6565b60405160208183030381529060405295505050505050915091565b7f000000000000000000000000000000000000000000000000000000000000000034101561138e576040517f08c379a000000000000000000000000000000000000000000000000000000000815260040161138590613929565b60405180910390fd5b6000600260003373ffffffffffffffffffffffffffffffffffffffff1673ffffffffffffffffffffffffffffffffffffffff1681526020019081526020016000209050828160000190805190602001906113e9929190612857565b5081816001019080519060200190611402929190612857565b503481600401819055503373ffffffffffffffffffffffffffffffffffffffff167ffa1a84d1d70e22f13d4467830fdd49dee6f3b856e2a7496fc410b04a796bc3708484346040516114569392919061398d565b60405180910390a2505050565b61146b6125c5565b61147560006126df565b565b80600260008673ffffffffffffffffffffffffffffffffffffffff1673ffffffffffffffffffffffffffffffffffffffff16815260200190815260200160002060040154116114fb576040517f08c379a00000000000000000000000000000000000000000000000000000000081526004016114f290613a1e565b60405180910390fd5b80600260008673ffffffffffffffffffffffffffffffffffffffff1673ffffffffffffffffffffffffffffffffffffffff168152602001908152602001600020600401600082825461154d9190613a3e565b9250508190555060008373ffffffffffffffffffffffffffffffffffffffff168260405161157a9061326b565b60006040518083038185875af1925050503d80600081146115b7576040519150601f19603f3d011682016040523d82523d6000602084013e6115bc565b606091505b50509050806115f7576040517fdff0f51900000000000000000000000000000000000000000000000000000000815260040160405180910390fd5b828473ffffffffffffffffffffffffffffffffffffffff168673ffffffffffffffffffffffffffffffffffffffff167fd124b6d9d1b8768be72a66e1615675e505ca46dffa380498c7f78cbbc13251db856040516116559190612a0a565b60405180910390a45050505050565b61384081565b6000600160009054906101000a900473ffffffffffffffffffffffffffffffffffffffff16905090565b61169c611f60565b6000600660003373ffffffffffffffffffffffffffffffffffffffff1673ffffffffffffffffffffffffffffffffffffffff16815260200190815260200160002054905060008111611723576040517f08c379a000000000000000000000000000000000000000000000000000000000815260040161171a90613abe565b60405180910390fd5b6000600660003373ffffffffffffffffffffffffffffffffffffffff1673ffffffffffffffffffffffffffffffffffffffff1681526020019081526020016000208190555060003373ffffffffffffffffffffffffffffffffffffffff168260405161178e9061326b565b60006040518083038185875af1925050503d80600081146117cb576040519150601f19603f3d011682016040523d82523d6000602084013e6117d0565b606091505b5050905080611814576040517f08c379a000000000000000000000000000000000000000000000000000000000815260040161180b90613b2a565b60405180910390fd5b3373ffffffffffffffffffffffffffffffffffffffff167f798bc2f42b4374c3c7ab2c751c800d0e71db694d0554d2c863f1f245aba02cca8360405161185a9190612a0a565b60405180910390a2505061186c611fb0565b565b61187785610869565b156118b7576040517f08c379a00000000000000000000000000000000000000000000000000000000081526004016118ae90613b96565b60405180910390fd5b6000600360009054906101000a900473ffffffffffffffffffffffffffffffffffffffff1673ffffffffffffffffffffffffffffffffffffffff16636352211e876040518263ffffffff1660e01b81526004016119149190612a0a565b60206040518083038186803b15801561192c57600080fd5b505afa158015611940573d6000803e3d6000fd5b505050506040513d601f19601f820116820180604052508101906119649190613bcb565b90508073ffffffffffffffffffffffffffffffffffffffff163373ffffffffffffffffffffffffffffffffffffffff16146119d4576040517f08c379a00000000000000000000000000000000000000000000000000000000081526004016119cb90613c44565b60405180910390fd5b60008511611a17576040517f08c379a0000000000000000000000000000000000000000000000000000000008152600401611a0e90613cb0565b60405180910390fd5b6000611a238588610e2d565b80611a335750611a3285611e8e565b5b905080611a75576040517f08c379a0000000000000000000000000000000000000000000000000000000008152600401611a6c90613d1c565b60405180910390fd5b428410158015611a8457508383115b8015611a9d57506138408484611a9a9190613a3e565b10155b611adc576040517f08c379a0000000000000000000000000000000000000000000000000000000008152600401611ad390613d88565b60405180910390fd5b6000600460008981526020019081526020016000209050828160000160006101000a81548173ffffffffffffffffffffffffffffffffffffffff021916908373ffffffffffffffffffffffffffffffffffffffff16021790555086816001018190555086816002018190555060018160030160006101000a81548160ff02191690836002811115611b7057611b6f61300d565b5b021790555084816004018190555083816005018190555060078890806001815401808255809150506001900390600052602060002001600090919091909150558573ffffffffffffffffffffffffffffffffffffffff16883373ffffffffffffffffffffffffffffffffffffffff167f1c305ace4c023658271087a56f1ca284323084fb1ffdbede257f38d1c0ff275360405160405180910390a45050505050505050565b7f000000000000000000000000000000000000000000000000000000000000000081565b60046020528060005260406000206000915090508060000160009054906101000a900473ffffffffffffffffffffffffffffffffffffffff16908060010154908060020154908060030160009054906101000a900460ff16908060040154908060050154905086565b6000600260008373ffffffffffffffffffffffffffffffffffffffff1673ffffffffffffffffffffffffffffffffffffffff168152602001908152602001600020600401549050919050565b600360009054906101000a900473ffffffffffffffffffffffffffffffffffffffff1673ffffffffffffffffffffffffffffffffffffffff163373ffffffffffffffffffffffffffffffffffffffff1614611d7e576040517f08c379a0000000000000000000000000000000000000000000000000000000008152600401611d7590613750565b60405180910390fd5b6000600260008473ffffffffffffffffffffffffffffffffffffffff1673ffffffffffffffffffffffffffffffffffffffff16815260200190815260200160002090506040518060400160405280838152602001600115158152508160020160008481526020019081526020016000206000820151816000015560208201518160010160006101000a81548160ff021916908315150217905550905050611e336001826003015461215590919063ffffffff16565b81600301819055508273ffffffffffffffffffffffffffffffffffffffff167fbb93286bf5aa4db648045b04d0566e215c1df5d898c5f576bc6cb5ce6a1860d183604051611e819190612a0a565b60405180910390a2505050565b600080600260008473ffffffffffffffffffffffffffffffffffffffff1673ffffffffffffffffffffffffffffffffffffffff16815260200190815260200160002060040154119050919050565b611ee46125c5565b600073ffffffffffffffffffffffffffffffffffffffff168173ffffffffffffffffffffffffffffffffffffffff161415611f54576040517f08c379a0000000000000000000000000000000000000000000000000000000008152600401611f4b90613e1a565b60405180910390fd5b611f5d816126df565b50565b60026000541415611fa6576040517f08c379a0000000000000000000000000000000000000000000000000000000008152600401611f9d90613e86565b60405180910390fd5b6002600081905550565b6001600081905550565b600080600090505b838054905081101561200f5782848281548110611fe257611fe161352e565b5b90600052602060002001541415611ffc578091505061204b565b80806120079061379f565b915050611fc2565b506040517f08c379a000000000000000000000000000000000000000000000000000000000815260040161204290613ef2565b60405180910390fd5b92915050565b81805490508110612097576040517f08c379a000000000000000000000000000000000000000000000000000000000815260040161208e90613f5e565b60405180910390fd5b60008190505b600183805490506120ae9190613a3e565b81101561211357826001826120c39190613f7e565b815481106120d4576120d361352e565b5b90600052602060002001548382815481106120f2576120f161352e565b5b9060005260206000200181905550808061210b9061379f565b91505061209d565b508180548061212557612124613fd4565b5b600190038181906000526020600020016000905590555050565b6000818361214d9190613a3e565b905092915050565b600081836121639190613f7e565b905092915050565b60005b815181101561221657600082828151811061218c5761218b61352e565b5b6020026020010151905060026004600083815260200190815260200160002060030160006101000a81548160ff021916908360028111156121d0576121cf61300d565b5b0217905550807f4c717c6246bfb7dab9a6cad9738a461a5ac7961f71c2609d336dec413418d87660405160405180910390a250808061220e9061379f565b91505061216e565b5050565b60005b81518110156125c157600082828151811061223b5761223a61352e565b5b602002602001015190506000600460008381526020019081526020016000206040518060e00160405290816000820160009054906101000a900473ffffffffffffffffffffffffffffffffffffffff1673ffffffffffffffffffffffffffffffffffffffff1673ffffffffffffffffffffffffffffffffffffffff16815260200160018201548152602001600282015481526020016003820160009054906101000a900460ff1660028111156122f4576122f361300d565b5b60028111156123065761230561300d565b5b8152602001600482015481526020016005820154815260200160068201805480602002602001604051908101604052809291908181526020016000905b828210156123df5783829060005260206000209060030201604051806060016040529081600082015481526020016001820160009054906101000a900473ffffffffffffffffffffffffffffffffffffffff1673ffffffffffffffffffffffffffffffffffffffff1673ffffffffffffffffffffffffffffffffffffffff16815260200160028201548152505081526020019060010190612343565b5050505081525050905060008160c001515111156124fe5760008160c0015161241760018460c001515161213f90919063ffffffff16565b815181106124285761242761352e565b5b6020026020010151905061249d8160000151600560008681526020019081526020016000206000846020015173ffffffffffffffffffffffffffffffffffffffff1673ffffffffffffffffffffffffffffffffffffffff1681526020019081526020016000205461215590919063ffffffff16565b50816040015160066000846000015173ffffffffffffffffffffffffffffffffffffffff1673ffffffffffffffffffffffffffffffffffffffff16815260200190815260200160002060008282546124f59190613f7e565b92505081905550505b60046000838152602001908152602001600020600080820160006101000a81549073ffffffffffffffffffffffffffffffffffffffff0219169055600182016000905560028201600090556003820160006101000a81549060ff02191690556004820160009055600582016000905560068201600061257d9190612833565b5050817ff9eca2ce21be0ac7cc143c0389dde1e1398844727578b7118a2407873bdf445760405160405180910390a2505080806125b99061379f565b91505061221d565b5050565b6125cd6127a5565b73ffffffffffffffffffffffffffffffffffffffff166125eb61166a565b73ffffffffffffffffffffffffffffffffffffffff1614612641576040517f08c379a00000000000000000000000000000000000000000000000000000000081526004016126389061404f565b60405180910390fd5b565b6126db828260405160240161265992919061406f565b6040516020818303038152906040527fc3b55635000000000000000000000000000000000000000000000000000000007bffffffffffffffffffffffffffffffffffffffffffffffffffffffff19166020820180517bffffffffffffffffffffffffffffffffffffffffffffffffffffffff83818316178352505050506127ad565b5050565b6000600160009054906101000a900473ffffffffffffffffffffffffffffffffffffffff16905081600160006101000a81548173ffffffffffffffffffffffffffffffffffffffff021916908373ffffffffffffffffffffffffffffffffffffffff1602179055508173ffffffffffffffffffffffffffffffffffffffff168173ffffffffffffffffffffffffffffffffffffffff167f8be0079c531659141344cd1fd0a4f28419497f9722a3daafe3b4186f6b6457e060405160405180910390a35050565b600033905090565b6127c4816127bc6127c76127e8565b63ffffffff16565b50565b60006a636f6e736f6c652e6c6f679050600080835160208501845afa505050565b6128dd819050919050565b5080546127ff906140ce565b6000825580601f106128115750612830565b601f01602090049060005260206000209081019061282f91906128e7565b5b50565b50805460008255600302906000526020600020908101906128549190612904565b50565b828054612863906140ce565b90600052602060002090601f01602090048101928261288557600085556128cc565b82601f1061289e57805160ff19168380011785556128cc565b828001600101855582156128cc579182015b828111156128cb5782518255916020019190600101906128b0565b5b5090506128d991906128e7565b5090565b6128e5614100565b565b5b808211156129005760008160009055506001016128e8565b5090565b5b8082111561294e576000808201600090556001820160006101000a81549073ffffffffffffffffffffffffffffffffffffffff0219169055600282016000905550600301612905565b5090565b6000604051905090565b600080fd5b600080fd5b600073ffffffffffffffffffffffffffffffffffffffff82169050919050565b600061299182612966565b9050919050565b6129a181612986565b81146129ac57600080fd5b50565b6000813590506129be81612998565b92915050565b6000602082840312156129da576129d961295c565b5b60006129e8848285016129af565b91505092915050565b6000819050919050565b612a04816129f1565b82525050565b6000602082019050612a1f60008301846129fb565b92915050565b612a2e816129f1565b8114612a3957600080fd5b50565b600081359050612a4b81612a25565b92915050565b600060208284031215612a6757612a6661295c565b5b6000612a7584828501612a3c565b91505092915050565b60008115159050919050565b612a9381612a7e565b82525050565b6000602082019050612aae6000830184612a8a565b92915050565b600080fd5b600080fd5b600080fd5b60008083601f840112612ad957612ad8612ab4565b5b8235905067ffffffffffffffff811115612af657612af5612ab9565b5b602083019150836001820283011115612b1257612b11612abe565b5b9250929050565b60008060208385031215612b3057612b2f61295c565b5b600083013567ffffffffffffffff811115612b4e57612b4d612961565b5b612b5a85828601612ac3565b92509250509250929050565b60008060408385031215612b7d57612b7c61295c565b5b6000612b8b858286016129af565b9250506020612b9c85828601612a3c565b9150509250929050565b600080fd5b6000601f19601f8301169050919050565b7f4e487b7100000000000000000000000000000000000000000000000000000000600052604160045260246000fd5b612bf482612bab565b810181811067ffffffffffffffff82111715612c1357612c12612bbc565b5b80604052505050565b6000612c26612952565b9050612c328282612beb565b919050565b600067ffffffffffffffff821115612c5257612c51612bbc565b5b612c5b82612bab565b9050602081019050919050565b82818337600083830152505050565b6000612c8a612c8584612c37565b612c1c565b905082815260208101848484011115612ca657612ca5612ba6565b5b612cb1848285612c68565b509392505050565b600082601f830112612cce57612ccd612ab4565b5b8135612cde848260208601612c77565b91505092915050565b600060208284031215612cfd57612cfc61295c565b5b600082013567ffffffffffffffff811115612d1b57612d1a612961565b5b612d2784828501612cb9565b91505092915050565b600081519050919050565b600082825260208201905092915050565b60005b83811015612d6a578082015181840152602081019050612d4f565b83811115612d79576000848401525b50505050565b6000612d8a82612d30565b612d948185612d3b565b9350612da4818560208601612d4c565b612dad81612bab565b840191505092915050565b6000604082019050612dcd6000830185612a8a565b8181036020830152612ddf8184612d7f565b90509392505050565b600067ffffffffffffffff821115612e0357612e02612bbc565b5b612e0c82612bab565b9050602081019050919050565b6000612e2c612e2784612de8565b612c1c565b905082815260208101848484011115612e4857612e47612ba6565b5b612e53848285612c68565b509392505050565b600082601f830112612e7057612e6f612ab4565b5b8135612e80848260208601612e19565b91505092915050565b60008060408385031215612ea057612e9f61295c565b5b600083013567ffffffffffffffff811115612ebe57612ebd612961565b5b612eca85828601612e5b565b925050602083013567ffffffffffffffff811115612eeb57612eea612961565b5b612ef785828601612e5b565b9150509250929050565b60008060008060808587031215612f1b57612f1a61295c565b5b6000612f29878288016129af565b9450506020612f3a878288016129af565b9350506040612f4b87828801612a3c565b9250506060612f5c87828801612a3c565b91505092959194509250565b612f7181612986565b82525050565b6000602082019050612f8c6000830184612f68565b92915050565b600080600080600060a08688031215612fae57612fad61295c565b5b6000612fbc88828901612a3c565b9550506020612fcd88828901612a3c565b9450506040612fde888289016129af565b9350506060612fef88828901612a3c565b925050608061300088828901612a3c565b9150509295509295909350565b7f4e487b7100000000000000000000000000000000000000000000000000000000600052602160045260246000fd5b6003811061304d5761304c61300d565b5b50565b600081905061305e8261303c565b919050565b600061306e82613050565b9050919050565b61307e81613063565b82525050565b600060c0820190506130996000830189612f68565b6130a660208301886129fb565b6130b360408301876129fb565b6130c06060830186613075565b6130cd60808301856129fb565b6130da60a08301846129fb565b979650505050505050565b600082825260208201905092915050565b7f4f6e6c7920677561726469616e732063616e2077697468647261770000000000600082015250565b600061312c601b836130e5565b9150613137826130f6565b602082019050919050565b6000602082019050818103600083015261315b8161311f565b9050919050565b7f477561726469616e207374696c6c20686173206974656d730000000000000000600082015250565b60006131986018836130e5565b91506131a382613162565b602082019050919050565b600060208201905081810360008301526131c78161318b565b9050919050565b7f477561726469616e20737461636b696e6720697320656d707479000000000000600082015250565b6000613204601a836130e5565b915061320f826131ce565b602082019050919050565b60006020820190508181036000830152613233816131f7565b9050919050565b600081905092915050565b50565b600061325560008361323a565b915061326082613245565b600082019050919050565b600061327682613248565b9150819050919050565b7f526566756e6420756e7375636365737366756c00000000000000000000000000600082015250565b60006132b66013836130e5565b91506132c182613280565b602082019050919050565b600060208201905081810360008301526132e5816132a9565b9050919050565b7f4974656d206973206e6f74206c69737465640000000000000000000000000000600082015250565b60006133226012836130e5565b915061332d826132ec565b602082019050919050565b6000602082019050818103600083015261335181613315565b9050919050565b7f6974656d206973206e6f742073656c6c696e6700000000000000000000000000600082015250565b600061338e6013836130e5565b915061339982613358565b602082019050919050565b600060208201905081810360008301526133bd81613381565b9050919050565b7f73656c6c6572206e6f742061626c652062696400000000000000000000000000600082015250565b60006133fa6013836130e5565b9150613405826133c4565b602082019050919050565b60006020820190508181036000830152613429816133ed565b9050919050565b7f62696420707269636520726571756972652068696768207468616e206c61737460008201527f2062696400000000000000000000000000000000000000000000000000000000602082015250565b600061348c6024836130e5565b915061349782613430565b604082019050919050565b600060208201905081810360008301526134bb8161347f565b9050919050565b7f61756374696f6e20697320656e64000000000000000000000000000000000000600082015250565b60006134f8600e836130e5565b9150613503826134c2565b602082019050919050565b60006020820190508181036000830152613527816134eb565b9050919050565b7f4e487b7100000000000000000000000000000000000000000000000000000000600052603260045260246000fd5b7f506572666f726d2075706b656570206e6f7420616c6c6f776564000000000000600082015250565b6000613593601a836130e5565b915061359e8261355d565b602082019050919050565b600060208201905081810360008301526135c281613586565b9050919050565b600067ffffffffffffffff8211156135e4576135e3612bbc565b5b602082029050602081019050919050565b6000613608613603846135c9565b612c1c565b9050808382526020820190506020840283018581111561362b5761362a612abe565b5b835b8181101561365457806136408882612a3c565b84526020840193505060208101905061362d565b5050509392505050565b600082601f83011261367357613672612ab4565b5b81356136838482602086016135f5565b91505092915050565b600080604083850312156136a3576136a261295c565b5b600083013567ffffffffffffffff8111156136c1576136c0612961565b5b6136cd8582860161365e565b925050602083013567ffffffffffffffff8111156136ee576136ed612961565b5b6136fa8582860161365e565b9150509250929050565b7f6f6e6c792061626c652063616c6c2062792041756374696f6e4e465400000000600082015250565b600061373a601c836130e5565b915061374582613704565b602082019050919050565b600060208201905081810360008301526137698161372d565b9050919050565b7f4e487b7100000000000000000000000000000000000000000000000000000000600052601160045260246000fd5b60006137aa826129f1565b91507fffffffffffffffffffffffffffffffffffffffffffffffffffffffffffffffff8214156137dd576137dc613770565b5b600182019050919050565b600081519050919050565b600082825260208201905092915050565b6000819050602082019050919050565b61381d816129f1565b82525050565b600061382f8383613814565b60208301905092915050565b6000602082019050919050565b6000613853826137e8565b61385d81856137f3565b935061386883613804565b8060005b838110156138995781516138808882613823565b975061388b8361383b565b92505060018101905061386c565b5085935050505092915050565b600060408201905081810360008301526138c08185613848565b905081810360208301526138d48184613848565b90509392505050565b7f4e6f7420656e6f7567687420746f207374616b696e6700000000000000000000600082015250565b60006139136016836130e5565b915061391e826138dd565b602082019050919050565b6000602082019050818103600083015261394281613906565b9050919050565b600081519050919050565b600061395f82613949565b61396981856130e5565b9350613979818560208601612d4c565b61398281612bab565b840191505092915050565b600060608201905081810360008301526139a78186613954565b905081810360208301526139bb8185613954565b90506139ca60408301846129fb565b949350505050565b7f4e6f7420656e6f7567682046756e6420746f2072657475726e00000000000000600082015250565b6000613a086019836130e5565b9150613a13826139d2565b602082019050919050565b60006020820190508181036000830152613a37816139fb565b9050919050565b6000613a49826129f1565b9150613a54836129f1565b925082821015613a6757613a66613770565b5b828203905092915050565b7f4e6f2070726f636565647320617661696c61626c650000000000000000000000600082015250565b6000613aa86015836130e5565b9150613ab382613a72565b602082019050919050565b60006020820190508181036000830152613ad781613a9b565b9050919050565b7f5472616e7366657220756e7375636365737366756c0000000000000000000000600082015250565b6000613b146015836130e5565b9150613b1f82613ade565b602082019050919050565b60006020820190508181036000830152613b4381613b07565b9050919050565b7f4974656d20697320616c7265616479206c697374656400000000000000000000600082015250565b6000613b806016836130e5565b9150613b8b82613b4a565b602082019050919050565b60006020820190508181036000830152613baf81613b73565b9050919050565b600081519050613bc581612998565b92915050565b600060208284031215613be157613be061295c565b5b6000613bef84828501613bb6565b91505092915050565b7f4f6e6c7920746865206f776e65722063616e206c697374000000000000000000600082015250565b6000613c2e6017836130e5565b9150613c3982613bf8565b602082019050919050565b60006020820190508181036000830152613c5d81613c21565b9050919050565b7f5072696365206d7573742062652067726561746572207468616e207a65726f00600082015250565b6000613c9a601f836130e5565b9150613ca582613c64565b602082019050919050565b60006020820190508181036000830152613cc981613c8d565b9050919050565b7f496e76616c696420677561726469616e00000000000000000000000000000000600082015250565b6000613d066010836130e5565b9150613d1182613cd0565b602082019050919050565b60006020820190508181036000830152613d3581613cf9565b9050919050565b7f496e76616c69642061756374696f6e2074696d65730000000000000000000000600082015250565b6000613d726015836130e5565b9150613d7d82613d3c565b602082019050919050565b60006020820190508181036000830152613da181613d65565b9050919050565b7f4f776e61626c653a206e6577206f776e657220697320746865207a65726f206160008201527f6464726573730000000000000000000000000000000000000000000000000000602082015250565b6000613e046026836130e5565b9150613e0f82613da8565b604082019050919050565b60006020820190508181036000830152613e3381613df7565b9050919050565b7f5265656e7472616e637947756172643a207265656e7472616e742063616c6c00600082015250565b6000613e70601f836130e5565b9150613e7b82613e3a565b602082019050919050565b60006020820190508181036000830152613e9f81613e63565b9050919050565b7f456c656d656e74206e6f7420666f756e6420696e206172726179000000000000600082015250565b6000613edc601a836130e5565b9150613ee782613ea6565b602082019050919050565b60006020820190508181036000830152613f0b81613ecf565b9050919050565b7f496e646578206f7574206f6620626f756e647300000000000000000000000000600082015250565b6000613f486013836130e5565b9150613f5382613f12565b602082019050919050565b60006020820190508181036000830152613f7781613f3b565b9050919050565b6000613f89826129f1565b9150613f94836129f1565b9250827fffffffffffffffffffffffffffffffffffffffffffffffffffffffffffffffff03821115613fc957613fc8613770565b5b828201905092915050565b7f4e487b7100000000000000000000000000000000000000000000000000000000600052603160045260246000fd5b7f4f776e61626c653a2063616c6c6572206973206e6f7420746865206f776e6572600082015250565b60006140396020836130e5565b915061404482614003565b602082019050919050565b600060208201905081810360008301526140688161402c565b9050919050565b600060408201905081810360008301526140898185613954565b90506140986020830184612a8a565b9392505050565b7f4e487b7100000000000000000000000000000000000000000000000000000000600052602260045260246000fd5b600060028204905060018216806140e657607f821691505b602082108114156140fa576140f961409f565b5b50919050565b7f4e487b7100000000000000000000000000000000000000000000000000000000600052605160045260246000fdfea2646970667358221220738c6cdd61bf185cd643e53d606477d3fd32cb56e4942a0725fedfc67a87235964736f6c63430008080033",
  "linkReferences": {},
  "deployedLinkReferences": {}
}