{
  "address": "0x8394dF077a901F11989001a98eda5bE96f4f95f5",
  "abi": [
    {
      "inputs": [
        {
          "internalType": "uint256",
          "name": "_minStackingValue",
          "type": "uint256"
        }
      ],
      "stateMutability": "nonpayable",
      "type": "constructor"
    },
    {
      "inputs": [],
      "name": "AuctionHouse_refundUnsuccess",
      "type": "error"
    },
    {
      "inputs": [],
      "name": "OnlySimulatedBackend",
      "type": "error"
    },
    {
      "anonymous": false,
      "inputs": [
        {
          "indexed": true,
          "internalType": "address",
          "name": "seller",
          "type": "address"
        },
        {
          "indexed": true,
          "internalType": "uint256",
          "name": "tokenId",
          "type": "uint256"
        },
        {
          "indexed": true,
          "internalType": "address",
          "name": "guardian",
          "type": "address"
        }
      ],
      "name": "AssertListed",
      "type": "event"
    },
    {
      "anonymous": false,
      "inputs": [
        {
          "indexed": true,
          "internalType": "uint256",
          "name": "tokenId",
          "type": "uint256"
        }
      ],
      "name": "AuctionEnd",
      "type": "event"
    },
    {
      "anonymous": false,
      "inputs": [
        {
          "indexed": true,
          "internalType": "address",
          "name": "guardian",
          "type": "address"
        },
        {
          "indexed": false,
          "internalType": "string",
          "name": "name",
          "type": "string"
        },
        {
          "indexed": false,
          "internalType": "string",
          "name": "location",
          "type": "string"
        },
        {
          "indexed": false,
          "internalType": "uint256",
          "name": "stacking",
          "type": "uint256"
        }
      ],
      "name": "GuardianAdded",
      "type": "event"
    },
    {
      "anonymous": false,
      "inputs": [
        {
          "indexed": true,
          "internalType": "address",
          "name": "guardian",
          "type": "address"
        },
        {
          "indexed": false,
          "internalType": "uint256",
          "name": "amount",
          "type": "uint256"
        }
      ],
      "name": "GuardianWithdraw",
      "type": "event"
    },
    {
      "anonymous": false,
      "inputs": [
        {
          "indexed": true,
          "internalType": "address",
          "name": "guardian",
          "type": "address"
        },
        {
          "indexed": false,
          "internalType": "uint256",
          "name": "tokenId",
          "type": "uint256"
        }
      ],
      "name": "ItemAdded",
      "type": "event"
    },
    {
      "anonymous": false,
      "inputs": [
        {
          "indexed": true,
          "internalType": "address",
          "name": "guardian",
          "type": "address"
        },
        {
          "indexed": true,
          "internalType": "address",
          "name": "owner",
          "type": "address"
        },
        {
          "indexed": true,
          "internalType": "uint256",
          "name": "tokenId",
          "type": "uint256"
        },
        {
          "indexed": false,
          "internalType": "uint256",
          "name": "refundPrice",
          "type": "uint256"
        }
      ],
      "name": "ItemBreakRefund",
      "type": "event"
    },
    {
      "anonymous": false,
      "inputs": [
        {
          "indexed": true,
          "internalType": "address",
          "name": "guardian",
          "type": "address"
        },
        {
          "indexed": false,
          "internalType": "uint256",
          "name": "tokenId",
          "type": "uint256"
        }
      ],
      "name": "ItemRedeem",
      "type": "event"
    },
    {
      "anonymous": false,
      "inputs": [
        {
          "indexed": true,
          "internalType": "uint256",
          "name": "tokneId",
          "type": "uint256"
        }
      ],
      "name": "ListingCancel",
      "type": "event"
    },
    {
      "anonymous": false,
      "inputs": [
        {
          "indexed": true,
          "internalType": "uint256",
          "name": "tokenId",
          "type": "uint256"
        }
      ],
      "name": "ListingSell",
      "type": "event"
    },
    {
      "anonymous": false,
      "inputs": [
        {
          "indexed": true,
          "internalType": "address",
          "name": "previousOwner",
          "type": "address"
        },
        {
          "indexed": true,
          "internalType": "address",
          "name": "newOwner",
          "type": "address"
        }
      ],
      "name": "OwnershipTransferred",
      "type": "event"
    },
    {
      "anonymous": false,
      "inputs": [
        {
          "indexed": true,
          "internalType": "address",
          "name": "user",
          "type": "address"
        },
        {
          "indexed": false,
          "internalType": "uint256",
          "name": "proceeds",
          "type": "uint256"
        }
      ],
      "name": "ProceedsWithdraw",
      "type": "event"
    },
    {
      "anonymous": false,
      "inputs": [
        {
          "indexed": true,
          "internalType": "address",
          "name": "buyer",
          "type": "address"
        },
        {
          "indexed": true,
          "internalType": "uint256",
          "name": "tokenId",
          "type": "uint256"
        },
        {
          "indexed": false,
          "internalType": "uint256",
          "name": "bidPrice",
          "type": "uint256"
        }
      ],
      "name": "SubmittedBid",
      "type": "event"
    },
    {
      "inputs": [],
      "name": "MINBIDINTERVAL",
      "outputs": [
        {
          "internalType": "uint256",
          "name": "",
          "type": "uint256"
        }
      ],
      "stateMutability": "view",
      "type": "function"
    },
    {
      "inputs": [
        {
          "internalType": "address",
          "name": "_guardian",
          "type": "address"
        },
        {
          "internalType": "uint256",
          "name": "_tokenId",
          "type": "uint256"
        }
      ],
      "name": "addItems",
      "outputs": [],
      "stateMutability": "nonpayable",
      "type": "function"
    },
    {
      "inputs": [
        {
          "internalType": "string",
          "name": "_name",
          "type": "string"
        },
        {
          "internalType": "string",
          "name": "_location",
          "type": "string"
        }
      ],
      "name": "applyGuardian",
      "outputs": [],
      "stateMutability": "payable",
      "type": "function"
    },
    {
      "inputs": [
        {
          "internalType": "address",
          "name": "_guardian",
          "type": "address"
        },
        {
          "internalType": "uint256",
          "name": "_tokenId",
          "type": "uint256"
        }
      ],
      "name": "assetInGuardian",
      "outputs": [
        {
          "internalType": "bool",
          "name": "",
          "type": "bool"
        }
      ],
      "stateMutability": "view",
      "type": "function"
    },
    {
      "inputs": [
        {
          "internalType": "uint256",
          "name": "_tokenId",
          "type": "uint256"
        }
      ],
      "name": "bid",
      "outputs": [],
      "stateMutability": "payable",
      "type": "function"
    },
    {
      "inputs": [
        {
          "internalType": "address",
          "name": "_guardian",
          "type": "address"
        },
        {
          "internalType": "address",
          "name": "_owner",
          "type": "address"
        },
        {
          "internalType": "uint256",
          "name": "_tokenId",
          "type": "uint256"
        },
        {
          "internalType": "uint256",
          "name": "_refundPrice",
          "type": "uint256"
        }
      ],
      "name": "breakRefund",
      "outputs": [],
      "stateMutability": "nonpayable",
      "type": "function"
    },
    {
      "inputs": [
        {
          "internalType": "uint256",
          "name": "_tokenId",
          "type": "uint256"
        }
      ],
      "name": "cancelListing",
      "outputs": [],
      "stateMutability": "nonpayable",
      "type": "function"
    },
    {
      "inputs": [
        {
          "internalType": "bytes",
          "name": "",
          "type": "bytes"
        }
      ],
      "name": "checkUpkeep",
      "outputs": [
        {
          "internalType": "bool",
          "name": "upkeepNeeded",
          "type": "bool"
        },
        {
          "internalType": "bytes",
          "name": "performData",
          "type": "bytes"
        }
      ],
      "stateMutability": "view",
      "type": "function"
    },
    {
      "inputs": [
        {
          "internalType": "address",
          "name": "_guardian",
          "type": "address"
        }
      ],
      "name": "guardianStacking",
      "outputs": [
        {
          "internalType": "uint256",
          "name": "",
          "type": "uint256"
        }
      ],
      "stateMutability": "view",
      "type": "function"
    },
    {
      "inputs": [
        {
          "internalType": "address",
          "name": "_guardian",
          "type": "address"
        }
      ],
      "name": "isGuardians",
      "outputs": [
        {
          "internalType": "bool",
          "name": "",
          "type": "bool"
        }
      ],
      "stateMutability": "view",
      "type": "function"
    },
    {
      "inputs": [
        {
          "internalType": "uint256",
          "name": "tokenId",
          "type": "uint256"
        }
      ],
      "name": "isListing",
      "outputs": [
        {
          "internalType": "bool",
          "name": "",
          "type": "bool"
        }
      ],
      "stateMutability": "view",
      "type": "function"
    },
    {
      "inputs": [
        {
          "internalType": "uint256",
          "name": "_tokenId",
          "type": "uint256"
        },
        {
          "internalType": "uint256",
          "name": "_price",
          "type": "uint256"
        },
        {
          "internalType": "address",
          "name": "_guardian",
          "type": "address"
        },
        {
          "internalType": "uint256",
          "name": "_startAt",
          "type": "uint256"
        },
        {
          "internalType": "uint256",
          "name": "_endAt",
          "type": "uint256"
        }
      ],
      "name": "listAssert",
      "outputs": [],
      "stateMutability": "nonpayable",
      "type": "function"
    },
    {
      "inputs": [],
      "name": "owner",
      "outputs": [
        {
          "internalType": "address",
          "name": "",
          "type": "address"
        }
      ],
      "stateMutability": "view",
      "type": "function"
    },
    {
      "inputs": [
        {
          "internalType": "bytes",
          "name": "performData",
          "type": "bytes"
        }
      ],
      "name": "performUpkeep",
      "outputs": [],
      "stateMutability": "nonpayable",
      "type": "function"
    },
    {
      "inputs": [
        {
          "internalType": "address",
          "name": "_guardian",
          "type": "address"
        },
        {
          "internalType": "uint256",
          "name": "_tokenId",
          "type": "uint256"
        }
      ],
      "name": "redeemAsset",
      "outputs": [],
      "stateMutability": "nonpayable",
      "type": "function"
    },
    {
      "inputs": [],
      "name": "renounceOwnership",
      "outputs": [],
      "stateMutability": "nonpayable",
      "type": "function"
    },
    {
      "inputs": [
        {
          "internalType": "uint256",
          "name": "",
          "type": "uint256"
        }
      ],
      "name": "s_listings",
      "outputs": [
        {
          "internalType": "address",
          "name": "seller",
          "type": "address"
        },
        {
          "internalType": "uint256",
          "name": "price",
          "type": "uint256"
        },
        {
          "internalType": "uint256",
          "name": "netPrice",
          "type": "uint256"
        },
        {
          "internalType": "enum AuctionNftStatus",
          "name": "status",
          "type": "uint8"
        },
        {
          "internalType": "uint256",
          "name": "startAt",
          "type": "uint256"
        },
        {
          "internalType": "uint256",
          "name": "endAt",
          "type": "uint256"
        }
      ],
      "stateMutability": "view",
      "type": "function"
    },
    {
      "inputs": [
        {
          "internalType": "uint256",
          "name": "",
          "type": "uint256"
        }
      ],
      "name": "s_listingsCounter",
      "outputs": [
        {
          "internalType": "uint256",
          "name": "",
          "type": "uint256"
        }
      ],
      "stateMutability": "view",
      "type": "function"
    },
    {
      "inputs": [],
      "name": "s_minStackingValue",
      "outputs": [
        {
          "internalType": "uint256",
          "name": "",
          "type": "uint256"
        }
      ],
      "stateMutability": "view",
      "type": "function"
    },
    {
      "inputs": [
        {
          "internalType": "address",
          "name": "",
          "type": "address"
        }
      ],
      "name": "s_proceeds",
      "outputs": [
        {
          "internalType": "uint256",
          "name": "",
          "type": "uint256"
        }
      ],
      "stateMutability": "view",
      "type": "function"
    },
    {
      "inputs": [
        {
          "internalType": "address",
          "name": "_auctionNftAddress",
          "type": "address"
        }
      ],
      "name": "setAuctionNft",
      "outputs": [],
      "stateMutability": "nonpayable",
      "type": "function"
    },
    {
      "inputs": [
        {
          "internalType": "address",
          "name": "newOwner",
          "type": "address"
        }
      ],
      "name": "transferOwnership",
      "outputs": [],
      "stateMutability": "nonpayable",
      "type": "function"
    },
    {
      "inputs": [],
      "name": "withdrawGuardianStacking",
      "outputs": [],
      "stateMutability": "nonpayable",
      "type": "function"
    },
    {
      "inputs": [],
      "name": "withdrawProceeds",
      "outputs": [],
      "stateMutability": "nonpayable",
      "type": "function"
    }
  ],
  "transactionHash": "0x51a2f411d8aa23bdd3c82919a0dac8b8191ba964302f208365242ffc0cd47bf9",
  "args": [
    "1000000000000000"
  ],
  "numDeployments": 5,
  "solcInputHash": "283faf7376525f2ef8edade846892872",
  "bytecode": "0x60a06040523480156200001157600080fd5b50604051620040b3380380620040b383398181016040528101906200003791906200017e565b80600160008190555062000060620000546200007060201b60201c565b6200007860201b60201c565b80608081815250505050620001b0565b600033905090565b6000600160009054906101000a900473ffffffffffffffffffffffffffffffffffffffff16905081600160006101000a81548173ffffffffffffffffffffffffffffffffffffffff021916908373ffffffffffffffffffffffffffffffffffffffff1602179055508173ffffffffffffffffffffffffffffffffffffffff168173ffffffffffffffffffffffffffffffffffffffff167f8be0079c531659141344cd1fd0a4f28419497f9722a3daafe3b4186f6b6457e060405160405180910390a35050565b600080fd5b6000819050919050565b620001588162000143565b81146200016457600080fd5b50565b60008151905062000178816200014d565b92915050565b6000602082840312156200019757620001966200013e565b5b6000620001a78482850162000167565b91505092915050565b608051613ee0620001d36000396000818161120c0152611af60152613ee06000f3fe60806040526004361061014b5760003560e01c8063715018a6116100b6578063bd578f231161006f578063bd578f231461044b578063c477376114610476578063c6121e65146104b8578063e096c7d9146104f5578063e2139def1461051e578063f2fde38b1461055b5761014b565b8063715018a61461037557806380d14b151461038c5780638cb4e0b8146103b55780638da5cb5b146103e05780639038e6931461040b5780639ac8c855146104225761014b565b80634585e33b116101085780634585e33b1461026357806348f85b071461028c578063493799ea146102c95780636deea29c146102f25780636e04ff0d1461031b5780636f095f10146103595761014b565b8063036df666146101505780631d72954d1461018d57806325ed4114146101ca5780633057ae7d146101e1578063305a67a81461021e578063454a2ab314610247575b600080fd5b34801561015c57600080fd5b50610177600480360381019061017291906127b7565b610584565b60405161018491906127fd565b60405180910390f35b34801561019957600080fd5b506101b460048036038101906101af9190612844565b61059c565b6040516101c191906127fd565b60405180910390f35b3480156101d657600080fd5b506101df6105c0565b005b3480156101ed57600080fd5b5061020860048036038101906102039190612844565b610869565b604051610215919061288c565b60405180910390f35b34801561022a57600080fd5b5061024560048036038101906102409190612844565b6108bd565b005b610261600480360381019061025c9190612844565b6109d1565b005b34801561026f57600080fd5b5061028a6004803603810190610285919061290c565b610d7b565b005b34801561029857600080fd5b506102b360048036038101906102ae9190612959565b610e07565b6040516102c0919061288c565b60405180910390f35b3480156102d557600080fd5b506102f060048036038101906102eb91906127b7565b610e75565b005b3480156102fe57600080fd5b5061031960048036038101906103149190612959565b610ec1565b005b34801561032757600080fd5b50610342600480360381019061033d9190612ada565b61103b565b604051610350929190612bab565b60405180910390f35b610373600480360381019061036e9190612c7c565b61120a565b005b34801561038157600080fd5b5061038a611342565b005b34801561039857600080fd5b506103b360048036038101906103ae9190612cf4565b611356565b005b3480156103c157600080fd5b506103ca611543565b6040516103d791906127fd565b60405180910390f35b3480156103ec57600080fd5b506103f5611549565b6040516104029190612d6a565b60405180910390f35b34801561041757600080fd5b50610420611573565b005b34801561042e57600080fd5b5061044960048036038101906104449190612d85565b61174d565b005b34801561045757600080fd5b50610460611af4565b60405161046d91906127fd565b60405180910390f35b34801561048257600080fd5b5061049d60048036038101906104989190612844565b611b18565b6040516104af96959493929190612e77565b60405180910390f35b3480156104c457600080fd5b506104df60048036038101906104da91906127b7565b611b81565b6040516104ec91906127fd565b60405180910390f35b34801561050157600080fd5b5061051c60048036038101906105179190612959565b611bcd565b005b34801561052a57600080fd5b50610545600480360381019061054091906127b7565b611d6d565b604051610552919061288c565b60405180910390f35b34801561056757600080fd5b50610582600480360381019061057d91906127b7565b611dbb565b005b60066020528060005260406000206000915090505481565b600781815481106105ac57600080fd5b906000526020600020016000915090505481565b6105c8611e3f565b60003390506105d681611d6d565b610615576040517f08c379a000000000000000000000000000000000000000000000000000000000815260040161060c90612f35565b60405180910390fd5b6000600260008373ffffffffffffffffffffffffffffffffffffffff1673ffffffffffffffffffffffffffffffffffffffff1681526020019081526020016000209050600081600301541461069f576040517f08c379a000000000000000000000000000000000000000000000000000000000815260040161069690612fa1565b60405180910390fd5b60008160040154116106e6576040517f08c379a00000000000000000000000000000000000000000000000000000000081526004016106dd9061300d565b60405180910390fd5b600081600401549050600260008473ffffffffffffffffffffffffffffffffffffffff1673ffffffffffffffffffffffffffffffffffffffff1681526020019081526020016000206000808201600061073f91906125f0565b60018201600061074f91906125f0565b60038201600090556004820160009055505060008373ffffffffffffffffffffffffffffffffffffffff16826040516107879061305e565b60006040518083038185875af1925050503d80600081146107c4576040519150601f19603f3d011682016040523d82523d6000602084013e6107c9565b606091505b505090508061080d576040517f08c379a0000000000000000000000000000000000000000000000000000000008152600401610804906130bf565b60405180910390fd5b8373ffffffffffffffffffffffffffffffffffffffff167fbf4b16921e38f358e994469d31459fda2ae4a3ceafc97a1af2605cfc2a0a3f278360405161085391906127fd565b60405180910390a250505050610867611e8f565b565b60006001600281111561087f5761087e612e00565b5b6004600084815260200190815260200160002060030160009054906101000a900460ff1660028111156108b5576108b4612e00565b5b149050919050565b6108c681610869565b610905576040517f08c379a00000000000000000000000000000000000000000000000000000000081526004016108fc9061312b565b60405180910390fd5b6000610912600783611e99565b905061091f600782611f30565b60046000838152602001908152602001600020600080820160006101000a81549073ffffffffffffffffffffffffffffffffffffffff0219169055600182016000905560028201600090556003820160006101000a81549060ff02191690556004820160009055600582016000905560068201600061099e9190612630565b5050817f0f3b2ba25e60fad60dd6b71126d121fb34a6c021e783fd96dd501ae1ee12493860405160405180910390a25050565b60006004600083815260200190815260200160002090506002808111156109fb576109fa612e00565b5b8160030160009054906101000a900460ff166002811115610a1f57610a1e612e00565b5b14610a5f576040517f08c379a0000000000000000000000000000000000000000000000000000000008152600401610a5690613197565b60405180910390fd5b3373ffffffffffffffffffffffffffffffffffffffff168160000160009054906101000a900473ffffffffffffffffffffffffffffffffffffffff1673ffffffffffffffffffffffffffffffffffffffff161415610af2576040517f08c379a0000000000000000000000000000000000000000000000000000000008152600401610ae990613203565b60405180910390fd5b34816002015410610b38576040517f08c379a0000000000000000000000000000000000000000000000000000000008152600401610b2f90613295565b60405180910390fd5b42816005015411610b7e576040517f08c379a0000000000000000000000000000000000000000000000000000000008152600401610b7590613301565b60405180910390fd5b600081600601805490501015610c5e57600081600601610baf6001846006018054905061201e90919063ffffffff16565b81548110610bc057610bbf613321565b5b90600052602060002090600302019050610c5b81600001546005600086815260200190815260200160002060008460010160009054906101000a900473ffffffffffffffffffffffffffffffffffffffff1673ffffffffffffffffffffffffffffffffffffffff1673ffffffffffffffffffffffffffffffffffffffff1681526020019081526020016000205461203490919063ffffffff16565b50505b60003490508160060160405180606001604052808381526020013373ffffffffffffffffffffffffffffffffffffffff1681526020014281525090806001815401808255809150506001900390600052602060002090600302016000909190919091506000820151816000015560208201518160010160006101000a81548173ffffffffffffffffffffffffffffffffffffffff021916908373ffffffffffffffffffffffffffffffffffffffff160217905550604082015181600201555050808260020181905550823373ffffffffffffffffffffffffffffffffffffffff167f4ce7bc87ccea1eb00ca1f33cc7fb74603e7173b7f878f1de79752b91e624aa5f83604051610d6e91906127fd565b60405180910390a3505050565b6000610d956040518060200160405280600081525061103b565b50905080610dd8576040517f08c379a0000000000000000000000000000000000000000000000000000000008152600401610dcf9061339c565b60405180910390fd5b6000808484810190610dea919061347f565b91509150610df78261204a565b610e00816120f9565b5050505050565b6000600260008473ffffffffffffffffffffffffffffffffffffffff1673ffffffffffffffffffffffffffffffffffffffff168152602001908152602001600020600201600083815260200190815260200160002060010160009054906101000a900460ff16905092915050565b610e7d6124a4565b80600360006101000a81548173ffffffffffffffffffffffffffffffffffffffff021916908373ffffffffffffffffffffffffffffffffffffffff16021790555050565b600360009054906101000a900473ffffffffffffffffffffffffffffffffffffffff1673ffffffffffffffffffffffffffffffffffffffff163373ffffffffffffffffffffffffffffffffffffffff1614610f51576040517f08c379a0000000000000000000000000000000000000000000000000000000008152600401610f4890613543565b60405180910390fd5b6000600260008473ffffffffffffffffffffffffffffffffffffffff1673ffffffffffffffffffffffffffffffffffffffff1681526020019081526020016000209050610fac6001826003015461201e90919063ffffffff16565b81600301819055508060020160008381526020019081526020016000206000808201600090556001820160006101000a81549060ff021916905550508273ffffffffffffffffffffffffffffffffffffffff167fface74a7025e28b51ce8f8a5c7b865349bad4075e98adcf0ad97bd777e7b3f728360405161102e91906127fd565b60405180910390a2505050565b600060606000600780549050905060008167ffffffffffffffff811115611065576110646129af565b5b6040519080825280602002602001820160405280156110935781602001602082028036833780820191505090505b50905060008267ffffffffffffffff8111156110b2576110b16129af565b5b6040519080825280602002602001820160405280156110e05781602001602082028036833780820191505090505b50905060008060005b858110156111db5760006007828154811061110757611106613321565b5b9060005260206000200154905060006004600083815260200190815260200160002090504281600401541180156111415750428160050154115b1561118057600199508187868151811061115e5761115d613321565b5b60200260200101818152505061117e60018661203490919063ffffffff16565b505b42816005015410156111c65760019950818685815181106111a4576111a3613321565b5b6020026020010181815250506111c460018561203490919063ffffffff16565b505b505080806111d390613592565b9150506110e9565b5083836040516020016111ef929190613693565b60405160208183030381529060405295505050505050915091565b7f000000000000000000000000000000000000000000000000000000000000000034101561126d576040517f08c379a000000000000000000000000000000000000000000000000000000000815260040161126490613703565b60405180910390fd5b6000600260003373ffffffffffffffffffffffffffffffffffffffff1673ffffffffffffffffffffffffffffffffffffffff1681526020019081526020016000209050828160000190805190602001906112c8929190612654565b50818160010190805190602001906112e1929190612654565b503481600401819055503373ffffffffffffffffffffffffffffffffffffffff167ffa1a84d1d70e22f13d4467830fdd49dee6f3b856e2a7496fc410b04a796bc37084843460405161133593929190613767565b60405180910390a2505050565b61134a6124a4565b6113546000612522565b565b80600260008673ffffffffffffffffffffffffffffffffffffffff1673ffffffffffffffffffffffffffffffffffffffff16815260200190815260200160002060040154116113da576040517f08c379a00000000000000000000000000000000000000000000000000000000081526004016113d1906137f8565b60405180910390fd5b80600260008673ffffffffffffffffffffffffffffffffffffffff1673ffffffffffffffffffffffffffffffffffffffff168152602001908152602001600020600401600082825461142c9190613818565b9250508190555060008373ffffffffffffffffffffffffffffffffffffffff16826040516114599061305e565b60006040518083038185875af1925050503d8060008114611496576040519150601f19603f3d011682016040523d82523d6000602084013e61149b565b606091505b50509050806114d6576040517fdff0f51900000000000000000000000000000000000000000000000000000000815260040160405180910390fd5b828473ffffffffffffffffffffffffffffffffffffffff168673ffffffffffffffffffffffffffffffffffffffff167fd124b6d9d1b8768be72a66e1615675e505ca46dffa380498c7f78cbbc13251db8560405161153491906127fd565b60405180910390a45050505050565b61384081565b6000600160009054906101000a900473ffffffffffffffffffffffffffffffffffffffff16905090565b61157b611e3f565b6000600660003373ffffffffffffffffffffffffffffffffffffffff1673ffffffffffffffffffffffffffffffffffffffff16815260200190815260200160002054905060008111611602576040517f08c379a00000000000000000000000000000000000000000000000000000000081526004016115f990613898565b60405180910390fd5b6000600660003373ffffffffffffffffffffffffffffffffffffffff1673ffffffffffffffffffffffffffffffffffffffff1681526020019081526020016000208190555060003373ffffffffffffffffffffffffffffffffffffffff168260405161166d9061305e565b60006040518083038185875af1925050503d80600081146116aa576040519150601f19603f3d011682016040523d82523d6000602084013e6116af565b606091505b50509050806116f3576040517f08c379a00000000000000000000000000000000000000000000000000000000081526004016116ea90613904565b60405180910390fd5b3373ffffffffffffffffffffffffffffffffffffffff167f798bc2f42b4374c3c7ab2c751c800d0e71db694d0554d2c863f1f245aba02cca8360405161173991906127fd565b60405180910390a2505061174b611e8f565b565b61175685610869565b15611796576040517f08c379a000000000000000000000000000000000000000000000000000000000815260040161178d90613970565b60405180910390fd5b6000600360009054906101000a900473ffffffffffffffffffffffffffffffffffffffff1673ffffffffffffffffffffffffffffffffffffffff16636352211e876040518263ffffffff1660e01b81526004016117f391906127fd565b60206040518083038186803b15801561180b57600080fd5b505afa15801561181f573d6000803e3d6000fd5b505050506040513d601f19601f8201168201806040525081019061184391906139a5565b90508073ffffffffffffffffffffffffffffffffffffffff163373ffffffffffffffffffffffffffffffffffffffff16146118b3576040517f08c379a00000000000000000000000000000000000000000000000000000000081526004016118aa90613a1e565b60405180910390fd5b600085116118f6576040517f08c379a00000000000000000000000000000000000000000000000000000000081526004016118ed90613a8a565b60405180910390fd5b60006119028588610e07565b80611912575061191185611d6d565b5b905080611954576040517f08c379a000000000000000000000000000000000000000000000000000000000815260040161194b90613af6565b60405180910390fd5b42841015801561196357508383115b801561197c575061384084846119799190613818565b10155b6119bb576040517f08c379a00000000000000000000000000000000000000000000000000000000081526004016119b290613b62565b60405180910390fd5b6000600460008981526020019081526020016000209050828160000160006101000a81548173ffffffffffffffffffffffffffffffffffffffff021916908373ffffffffffffffffffffffffffffffffffffffff16021790555086816001018190555086816002018190555060018160030160006101000a81548160ff02191690836002811115611a4f57611a4e612e00565b5b021790555084816004018190555083816005018190555060078890806001815401808255809150506001900390600052602060002001600090919091909150558573ffffffffffffffffffffffffffffffffffffffff16883373ffffffffffffffffffffffffffffffffffffffff167f1c305ace4c023658271087a56f1ca284323084fb1ffdbede257f38d1c0ff275360405160405180910390a45050505050505050565b7f000000000000000000000000000000000000000000000000000000000000000081565b60046020528060005260406000206000915090508060000160009054906101000a900473ffffffffffffffffffffffffffffffffffffffff16908060010154908060020154908060030160009054906101000a900460ff16908060040154908060050154905086565b6000600260008373ffffffffffffffffffffffffffffffffffffffff1673ffffffffffffffffffffffffffffffffffffffff168152602001908152602001600020600401549050919050565b600360009054906101000a900473ffffffffffffffffffffffffffffffffffffffff1673ffffffffffffffffffffffffffffffffffffffff163373ffffffffffffffffffffffffffffffffffffffff1614611c5d576040517f08c379a0000000000000000000000000000000000000000000000000000000008152600401611c5490613543565b60405180910390fd5b6000600260008473ffffffffffffffffffffffffffffffffffffffff1673ffffffffffffffffffffffffffffffffffffffff16815260200190815260200160002090506040518060400160405280838152602001600115158152508160020160008481526020019081526020016000206000820151816000015560208201518160010160006101000a81548160ff021916908315150217905550905050611d126001826003015461203490919063ffffffff16565b81600301819055508273ffffffffffffffffffffffffffffffffffffffff167fbb93286bf5aa4db648045b04d0566e215c1df5d898c5f576bc6cb5ce6a1860d183604051611d6091906127fd565b60405180910390a2505050565b600080600260008473ffffffffffffffffffffffffffffffffffffffff1673ffffffffffffffffffffffffffffffffffffffff16815260200190815260200160002060040154119050919050565b611dc36124a4565b600073ffffffffffffffffffffffffffffffffffffffff168173ffffffffffffffffffffffffffffffffffffffff161415611e33576040517f08c379a0000000000000000000000000000000000000000000000000000000008152600401611e2a90613bf4565b60405180910390fd5b611e3c81612522565b50565b60026000541415611e85576040517f08c379a0000000000000000000000000000000000000000000000000000000008152600401611e7c90613c60565b60405180910390fd5b6002600081905550565b6001600081905550565b600080600090505b8380549050811015611eee5782848281548110611ec157611ec0613321565b5b90600052602060002001541415611edb5780915050611f2a565b8080611ee690613592565b915050611ea1565b506040517f08c379a0000000000000000000000000000000000000000000000000000000008152600401611f2190613ccc565b60405180910390fd5b92915050565b81805490508110611f76576040517f08c379a0000000000000000000000000000000000000000000000000000000008152600401611f6d90613d38565b60405180910390fd5b60008190505b60018380549050611f8d9190613818565b811015611ff25782600182611fa29190613d58565b81548110611fb357611fb2613321565b5b9060005260206000200154838281548110611fd157611fd0613321565b5b90600052602060002001819055508080611fea90613592565b915050611f7c565b508180548061200457612003613dae565b5b600190038181906000526020600020016000905590555050565b6000818361202c9190613818565b905092915050565b600081836120429190613d58565b905092915050565b60005b81518110156120f557600082828151811061206b5761206a613321565b5b6020026020010151905060026004600083815260200190815260200160002060030160006101000a81548160ff021916908360028111156120af576120ae612e00565b5b0217905550807f4c717c6246bfb7dab9a6cad9738a461a5ac7961f71c2609d336dec413418d87660405160405180910390a25080806120ed90613592565b91505061204d565b5050565b60005b81518110156124a057600082828151811061211a57612119613321565b5b602002602001015190506000600460008381526020019081526020016000206040518060e00160405290816000820160009054906101000a900473ffffffffffffffffffffffffffffffffffffffff1673ffffffffffffffffffffffffffffffffffffffff1673ffffffffffffffffffffffffffffffffffffffff16815260200160018201548152602001600282015481526020016003820160009054906101000a900460ff1660028111156121d3576121d2612e00565b5b60028111156121e5576121e4612e00565b5b8152602001600482015481526020016005820154815260200160068201805480602002602001604051908101604052809291908181526020016000905b828210156122be5783829060005260206000209060030201604051806060016040529081600082015481526020016001820160009054906101000a900473ffffffffffffffffffffffffffffffffffffffff1673ffffffffffffffffffffffffffffffffffffffff1673ffffffffffffffffffffffffffffffffffffffff16815260200160028201548152505081526020019060010190612222565b5050505081525050905060008160c001515111156123dd5760008160c001516122f660018460c001515161201e90919063ffffffff16565b8151811061230757612306613321565b5b6020026020010151905061237c8160000151600560008681526020019081526020016000206000846020015173ffffffffffffffffffffffffffffffffffffffff1673ffffffffffffffffffffffffffffffffffffffff1681526020019081526020016000205461203490919063ffffffff16565b50816040015160066000846000015173ffffffffffffffffffffffffffffffffffffffff1673ffffffffffffffffffffffffffffffffffffffff16815260200190815260200160002060008282546123d49190613d58565b92505081905550505b60046000838152602001908152602001600020600080820160006101000a81549073ffffffffffffffffffffffffffffffffffffffff0219169055600182016000905560028201600090556003820160006101000a81549060ff02191690556004820160009055600582016000905560068201600061245c9190612630565b5050817ff9eca2ce21be0ac7cc143c0389dde1e1398844727578b7118a2407873bdf445760405160405180910390a25050808061249890613592565b9150506120fc565b5050565b6124ac6125e8565b73ffffffffffffffffffffffffffffffffffffffff166124ca611549565b73ffffffffffffffffffffffffffffffffffffffff1614612520576040517f08c379a000000000000000000000000000000000000000000000000000000000815260040161251790613e29565b60405180910390fd5b565b6000600160009054906101000a900473ffffffffffffffffffffffffffffffffffffffff16905081600160006101000a81548173ffffffffffffffffffffffffffffffffffffffff021916908373ffffffffffffffffffffffffffffffffffffffff1602179055508173ffffffffffffffffffffffffffffffffffffffff168173ffffffffffffffffffffffffffffffffffffffff167f8be0079c531659141344cd1fd0a4f28419497f9722a3daafe3b4186f6b6457e060405160405180910390a35050565b600033905090565b5080546125fc90613e78565b6000825580601f1061260e575061262d565b601f01602090049060005260206000209081019061262c91906126da565b5b50565b508054600082556003029060005260206000209081019061265191906126f7565b50565b82805461266090613e78565b90600052602060002090601f01602090048101928261268257600085556126c9565b82601f1061269b57805160ff19168380011785556126c9565b828001600101855582156126c9579182015b828111156126c85782518255916020019190600101906126ad565b5b5090506126d691906126da565b5090565b5b808211156126f35760008160009055506001016126db565b5090565b5b80821115612741576000808201600090556001820160006101000a81549073ffffffffffffffffffffffffffffffffffffffff02191690556002820160009055506003016126f8565b5090565b6000604051905090565b600080fd5b600080fd5b600073ffffffffffffffffffffffffffffffffffffffff82169050919050565b600061278482612759565b9050919050565b61279481612779565b811461279f57600080fd5b50565b6000813590506127b18161278b565b92915050565b6000602082840312156127cd576127cc61274f565b5b60006127db848285016127a2565b91505092915050565b6000819050919050565b6127f7816127e4565b82525050565b600060208201905061281260008301846127ee565b92915050565b612821816127e4565b811461282c57600080fd5b50565b60008135905061283e81612818565b92915050565b60006020828403121561285a5761285961274f565b5b60006128688482850161282f565b91505092915050565b60008115159050919050565b61288681612871565b82525050565b60006020820190506128a1600083018461287d565b92915050565b600080fd5b600080fd5b600080fd5b60008083601f8401126128cc576128cb6128a7565b5b8235905067ffffffffffffffff8111156128e9576128e86128ac565b5b602083019150836001820283011115612905576129046128b1565b5b9250929050565b600080602083850312156129235761292261274f565b5b600083013567ffffffffffffffff81111561294157612940612754565b5b61294d858286016128b6565b92509250509250929050565b600080604083850312156129705761296f61274f565b5b600061297e858286016127a2565b925050602061298f8582860161282f565b9150509250929050565b600080fd5b6000601f19601f8301169050919050565b7f4e487b7100000000000000000000000000000000000000000000000000000000600052604160045260246000fd5b6129e78261299e565b810181811067ffffffffffffffff82111715612a0657612a056129af565b5b80604052505050565b6000612a19612745565b9050612a2582826129de565b919050565b600067ffffffffffffffff821115612a4557612a446129af565b5b612a4e8261299e565b9050602081019050919050565b82818337600083830152505050565b6000612a7d612a7884612a2a565b612a0f565b905082815260208101848484011115612a9957612a98612999565b5b612aa4848285612a5b565b509392505050565b600082601f830112612ac157612ac06128a7565b5b8135612ad1848260208601612a6a565b91505092915050565b600060208284031215612af057612aef61274f565b5b600082013567ffffffffffffffff811115612b0e57612b0d612754565b5b612b1a84828501612aac565b91505092915050565b600081519050919050565b600082825260208201905092915050565b60005b83811015612b5d578082015181840152602081019050612b42565b83811115612b6c576000848401525b50505050565b6000612b7d82612b23565b612b878185612b2e565b9350612b97818560208601612b3f565b612ba08161299e565b840191505092915050565b6000604082019050612bc0600083018561287d565b8181036020830152612bd28184612b72565b90509392505050565b600067ffffffffffffffff821115612bf657612bf56129af565b5b612bff8261299e565b9050602081019050919050565b6000612c1f612c1a84612bdb565b612a0f565b905082815260208101848484011115612c3b57612c3a612999565b5b612c46848285612a5b565b509392505050565b600082601f830112612c6357612c626128a7565b5b8135612c73848260208601612c0c565b91505092915050565b60008060408385031215612c9357612c9261274f565b5b600083013567ffffffffffffffff811115612cb157612cb0612754565b5b612cbd85828601612c4e565b925050602083013567ffffffffffffffff811115612cde57612cdd612754565b5b612cea85828601612c4e565b9150509250929050565b60008060008060808587031215612d0e57612d0d61274f565b5b6000612d1c878288016127a2565b9450506020612d2d878288016127a2565b9350506040612d3e8782880161282f565b9250506060612d4f8782880161282f565b91505092959194509250565b612d6481612779565b82525050565b6000602082019050612d7f6000830184612d5b565b92915050565b600080600080600060a08688031215612da157612da061274f565b5b6000612daf8882890161282f565b9550506020612dc08882890161282f565b9450506040612dd1888289016127a2565b9350506060612de28882890161282f565b9250506080612df38882890161282f565b9150509295509295909350565b7f4e487b7100000000000000000000000000000000000000000000000000000000600052602160045260246000fd5b60038110612e4057612e3f612e00565b5b50565b6000819050612e5182612e2f565b919050565b6000612e6182612e43565b9050919050565b612e7181612e56565b82525050565b600060c082019050612e8c6000830189612d5b565b612e9960208301886127ee565b612ea660408301876127ee565b612eb36060830186612e68565b612ec060808301856127ee565b612ecd60a08301846127ee565b979650505050505050565b600082825260208201905092915050565b7f4f6e6c7920677561726469616e732063616e2077697468647261770000000000600082015250565b6000612f1f601b83612ed8565b9150612f2a82612ee9565b602082019050919050565b60006020820190508181036000830152612f4e81612f12565b9050919050565b7f477561726469616e207374696c6c20686173206974656d730000000000000000600082015250565b6000612f8b601883612ed8565b9150612f9682612f55565b602082019050919050565b60006020820190508181036000830152612fba81612f7e565b9050919050565b7f477561726469616e20737461636b696e6720697320656d707479000000000000600082015250565b6000612ff7601a83612ed8565b915061300282612fc1565b602082019050919050565b6000602082019050818103600083015261302681612fea565b9050919050565b600081905092915050565b50565b600061304860008361302d565b915061305382613038565b600082019050919050565b60006130698261303b565b9150819050919050565b7f526566756e6420756e7375636365737366756c00000000000000000000000000600082015250565b60006130a9601383612ed8565b91506130b482613073565b602082019050919050565b600060208201905081810360008301526130d88161309c565b9050919050565b7f4974656d206973206e6f74206c69737465640000000000000000000000000000600082015250565b6000613115601283612ed8565b9150613120826130df565b602082019050919050565b6000602082019050818103600083015261314481613108565b9050919050565b7f6974656d206973206e6f742073656c6c696e6700000000000000000000000000600082015250565b6000613181601383612ed8565b915061318c8261314b565b602082019050919050565b600060208201905081810360008301526131b081613174565b9050919050565b7f73656c6c6572206e6f742061626c652062696400000000000000000000000000600082015250565b60006131ed601383612ed8565b91506131f8826131b7565b602082019050919050565b6000602082019050818103600083015261321c816131e0565b9050919050565b7f62696420707269636520726571756972652068696768207468616e206c61737460008201527f2062696400000000000000000000000000000000000000000000000000000000602082015250565b600061327f602483612ed8565b915061328a82613223565b604082019050919050565b600060208201905081810360008301526132ae81613272565b9050919050565b7f61756374696f6e20697320656e64000000000000000000000000000000000000600082015250565b60006132eb600e83612ed8565b91506132f6826132b5565b602082019050919050565b6000602082019050818103600083015261331a816132de565b9050919050565b7f4e487b7100000000000000000000000000000000000000000000000000000000600052603260045260246000fd5b7f506572666f726d2075706b656570206e6f7420616c6c6f776564000000000000600082015250565b6000613386601a83612ed8565b915061339182613350565b602082019050919050565b600060208201905081810360008301526133b581613379565b9050919050565b600067ffffffffffffffff8211156133d7576133d66129af565b5b602082029050602081019050919050565b60006133fb6133f6846133bc565b612a0f565b9050808382526020820190506020840283018581111561341e5761341d6128b1565b5b835b818110156134475780613433888261282f565b845260208401935050602081019050613420565b5050509392505050565b600082601f830112613466576134656128a7565b5b81356134768482602086016133e8565b91505092915050565b600080604083850312156134965761349561274f565b5b600083013567ffffffffffffffff8111156134b4576134b3612754565b5b6134c085828601613451565b925050602083013567ffffffffffffffff8111156134e1576134e0612754565b5b6134ed85828601613451565b9150509250929050565b7f6f6e6c792061626c652063616c6c2062792041756374696f6e4e465400000000600082015250565b600061352d601c83612ed8565b9150613538826134f7565b602082019050919050565b6000602082019050818103600083015261355c81613520565b9050919050565b7f4e487b7100000000000000000000000000000000000000000000000000000000600052601160045260246000fd5b600061359d826127e4565b91507fffffffffffffffffffffffffffffffffffffffffffffffffffffffffffffffff8214156135d0576135cf613563565b5b600182019050919050565b600081519050919050565b600081905092915050565b6000819050602082019050919050565b61360a816127e4565b82525050565b600061361c8383613601565b60208301905092915050565b6000602082019050919050565b6000613640826135db565b61364a81856135e6565b9350613655836135f1565b8060005b8381101561368657815161366d8882613610565b975061367883613628565b925050600181019050613659565b5085935050505092915050565b600061369f8285613635565b91506136ab8284613635565b91508190509392505050565b7f4e6f7420656e6f7567687420746f207374616b696e6700000000000000000000600082015250565b60006136ed601683612ed8565b91506136f8826136b7565b602082019050919050565b6000602082019050818103600083015261371c816136e0565b9050919050565b600081519050919050565b600061373982613723565b6137438185612ed8565b9350613753818560208601612b3f565b61375c8161299e565b840191505092915050565b60006060820190508181036000830152613781818661372e565b90508181036020830152613795818561372e565b90506137a460408301846127ee565b949350505050565b7f4e6f7420656e6f7567682046756e6420746f2072657475726e00000000000000600082015250565b60006137e2601983612ed8565b91506137ed826137ac565b602082019050919050565b60006020820190508181036000830152613811816137d5565b9050919050565b6000613823826127e4565b915061382e836127e4565b92508282101561384157613840613563565b5b828203905092915050565b7f4e6f2070726f636565647320617661696c61626c650000000000000000000000600082015250565b6000613882601583612ed8565b915061388d8261384c565b602082019050919050565b600060208201905081810360008301526138b181613875565b9050919050565b7f5472616e7366657220756e7375636365737366756c0000000000000000000000600082015250565b60006138ee601583612ed8565b91506138f9826138b8565b602082019050919050565b6000602082019050818103600083015261391d816138e1565b9050919050565b7f4974656d20697320616c7265616479206c697374656400000000000000000000600082015250565b600061395a601683612ed8565b915061396582613924565b602082019050919050565b600060208201905081810360008301526139898161394d565b9050919050565b60008151905061399f8161278b565b92915050565b6000602082840312156139bb576139ba61274f565b5b60006139c984828501613990565b91505092915050565b7f4f6e6c7920746865206f776e65722063616e206c697374000000000000000000600082015250565b6000613a08601783612ed8565b9150613a13826139d2565b602082019050919050565b60006020820190508181036000830152613a37816139fb565b9050919050565b7f5072696365206d7573742062652067726561746572207468616e207a65726f00600082015250565b6000613a74601f83612ed8565b9150613a7f82613a3e565b602082019050919050565b60006020820190508181036000830152613aa381613a67565b9050919050565b7f496e76616c696420677561726469616e00000000000000000000000000000000600082015250565b6000613ae0601083612ed8565b9150613aeb82613aaa565b602082019050919050565b60006020820190508181036000830152613b0f81613ad3565b9050919050565b7f496e76616c69642061756374696f6e2074696d65730000000000000000000000600082015250565b6000613b4c601583612ed8565b9150613b5782613b16565b602082019050919050565b60006020820190508181036000830152613b7b81613b3f565b9050919050565b7f4f776e61626c653a206e6577206f776e657220697320746865207a65726f206160008201527f6464726573730000000000000000000000000000000000000000000000000000602082015250565b6000613bde602683612ed8565b9150613be982613b82565b604082019050919050565b60006020820190508181036000830152613c0d81613bd1565b9050919050565b7f5265656e7472616e637947756172643a207265656e7472616e742063616c6c00600082015250565b6000613c4a601f83612ed8565b9150613c5582613c14565b602082019050919050565b60006020820190508181036000830152613c7981613c3d565b9050919050565b7f456c656d656e74206e6f7420666f756e6420696e206172726179000000000000600082015250565b6000613cb6601a83612ed8565b9150613cc182613c80565b602082019050919050565b60006020820190508181036000830152613ce581613ca9565b9050919050565b7f496e646578206f7574206f6620626f756e647300000000000000000000000000600082015250565b6000613d22601383612ed8565b9150613d2d82613cec565b602082019050919050565b60006020820190508181036000830152613d5181613d15565b9050919050565b6000613d63826127e4565b9150613d6e836127e4565b9250827fffffffffffffffffffffffffffffffffffffffffffffffffffffffffffffffff03821115613da357613da2613563565b5b828201905092915050565b7f4e487b7100000000000000000000000000000000000000000000000000000000600052603160045260246000fd5b7f4f776e61626c653a2063616c6c6572206973206e6f7420746865206f776e6572600082015250565b6000613e13602083612ed8565b9150613e1e82613ddd565b602082019050919050565b60006020820190508181036000830152613e4281613e06565b9050919050565b7f4e487b7100000000000000000000000000000000000000000000000000000000600052602260045260246000fd5b60006002820490506001821680613e9057607f821691505b60208210811415613ea457613ea3613e49565b5b5091905056fea2646970667358221220f8dd9368a462ed106f031fad7a81f167e672b5ebc8fc624bfbda2c248d3a4d9064736f6c63430008080033",
  "devdoc": {
    "kind": "dev",
    "methods": {
      "owner()": {
        "details": "Returns the address of the current owner."
      },
      "performUpkeep(bytes)": {
        "details": "The input to this method should not be trusted, and the caller of the method should not even be restricted to any single registry. Anyone should be able call it, and the input should be validated, there is no guarantee that the data passed in is the performData returned from checkUpkeep. This could happen due to malicious keepers, racing keepers, or simply a state change while the performUpkeep transaction is waiting for confirmation. Always validate the data passed in.",
        "params": {
          "performData": "is the data which was passed back from the checkData simulation. If it is encoded, it can easily be decoded into other types by calling `abi.decode`. This data should not be trusted, and should be validated against the contract's current state."
        }
      },
      "renounceOwnership()": {
        "details": "Leaves the contract without owner. It will not be possible to call `onlyOwner` functions. Can only be called by the current owner. NOTE: Renouncing ownership will leave the contract without an owner, thereby disabling any functionality that is only available to the owner."
      },
      "transferOwnership(address)": {
        "details": "Transfers ownership of the contract to a new account (`newOwner`). Can only be called by the current owner."
      }
    },
    "version": 1
  },
  "userdoc": {
    "kind": "user",
    "methods": {
      "performUpkeep(bytes)": {
        "notice": "method that is actually executed by the keepers, via the registry. The data returned by the checkUpkeep simulation will be passed into this method to actually be executed."
      }
    },
    "version": 1
  },
  "storageLayout": {
    "storage": [
      {
        "astId": 209,
        "contract": "contracts/AuctionHouse.sol:AuctionHouse",
        "label": "_status",
        "offset": 0,
        "slot": "0",
        "type": "t_uint256"
      },
      {
        "astId": 65,
        "contract": "contracts/AuctionHouse.sol:AuctionHouse",
        "label": "_owner",
        "offset": 0,
        "slot": "1",
        "type": "t_address"
      },
      {
        "astId": 4617,
        "contract": "contracts/AuctionHouse.sol:AuctionHouse",
        "label": "s_guardians",
        "offset": 0,
        "slot": "2",
        "type": "t_mapping(t_address,t_struct(GuardianInfo)4354_storage)"
      },
      {
        "astId": 4620,
        "contract": "contracts/AuctionHouse.sol:AuctionHouse",
        "label": "s_auctionNft",
        "offset": 0,
        "slot": "3",
        "type": "t_contract(AuctionNFT)4595"
      },
      {
        "astId": 3497,
        "contract": "contracts/AuctionHouse.sol:AuctionHouse",
        "label": "s_listings",
        "offset": 0,
        "slot": "4",
        "type": "t_mapping(t_uint256,t_struct(Listing)4340_storage)"
      },
      {
        "astId": 3503,
        "contract": "contracts/AuctionHouse.sol:AuctionHouse",
        "label": "s_returnFund",
        "offset": 0,
        "slot": "5",
        "type": "t_mapping(t_uint256,t_mapping(t_address,t_uint256))"
      },
      {
        "astId": 3507,
        "contract": "contracts/AuctionHouse.sol:AuctionHouse",
        "label": "s_proceeds",
        "offset": 0,
        "slot": "6",
        "type": "t_mapping(t_address,t_uint256)"
      },
      {
        "astId": 3513,
        "contract": "contracts/AuctionHouse.sol:AuctionHouse",
        "label": "s_listingsCounter",
        "offset": 0,
        "slot": "7",
        "type": "t_array(t_uint256)dyn_storage"
      }
    ],
    "types": {
      "t_address": {
        "encoding": "inplace",
        "label": "address",
        "numberOfBytes": "20"
      },
      "t_array(t_struct(Bid)4361_storage)dyn_storage": {
        "base": "t_struct(Bid)4361_storage",
        "encoding": "dynamic_array",
        "label": "struct Bid[]",
        "numberOfBytes": "32"
      },
      "t_array(t_uint256)dyn_storage": {
        "base": "t_uint256",
        "encoding": "dynamic_array",
        "label": "uint256[]",
        "numberOfBytes": "32"
      },
      "t_bool": {
        "encoding": "inplace",
        "label": "bool",
        "numberOfBytes": "1"
      },
      "t_contract(AuctionNFT)4595": {
        "encoding": "inplace",
        "label": "contract AuctionNFT",
        "numberOfBytes": "20"
      },
      "t_enum(AuctionNftStatus)4322": {
        "encoding": "inplace",
        "label": "enum AuctionNftStatus",
        "numberOfBytes": "1"
      },
      "t_mapping(t_address,t_struct(GuardianInfo)4354_storage)": {
        "encoding": "mapping",
        "key": "t_address",
        "label": "mapping(address => struct GuardianInfo)",
        "numberOfBytes": "32",
        "value": "t_struct(GuardianInfo)4354_storage"
      },
      "t_mapping(t_address,t_uint256)": {
        "encoding": "mapping",
        "key": "t_address",
        "label": "mapping(address => uint256)",
        "numberOfBytes": "32",
        "value": "t_uint256"
      },
      "t_mapping(t_uint256,t_mapping(t_address,t_uint256))": {
        "encoding": "mapping",
        "key": "t_uint256",
        "label": "mapping(uint256 => mapping(address => uint256))",
        "numberOfBytes": "32",
        "value": "t_mapping(t_address,t_uint256)"
      },
      "t_mapping(t_uint256,t_struct(Listing)4340_storage)": {
        "encoding": "mapping",
        "key": "t_uint256",
        "label": "mapping(uint256 => struct Listing)",
        "numberOfBytes": "32",
        "value": "t_struct(Listing)4340_storage"
      },
      "t_mapping(t_uint256,t_struct(TokenInfo)4366_storage)": {
        "encoding": "mapping",
        "key": "t_uint256",
        "label": "mapping(uint256 => struct TokenInfo)",
        "numberOfBytes": "32",
        "value": "t_struct(TokenInfo)4366_storage"
      },
      "t_string_storage": {
        "encoding": "bytes",
        "label": "string",
        "numberOfBytes": "32"
      },
      "t_struct(Bid)4361_storage": {
        "encoding": "inplace",
        "label": "struct Bid",
        "members": [
          {
            "astId": 4356,
            "contract": "contracts/AuctionHouse.sol:AuctionHouse",
            "label": "price",
            "offset": 0,
            "slot": "0",
            "type": "t_uint256"
          },
          {
            "astId": 4358,
            "contract": "contracts/AuctionHouse.sol:AuctionHouse",
            "label": "buyer",
            "offset": 0,
            "slot": "1",
            "type": "t_address"
          },
          {
            "astId": 4360,
            "contract": "contracts/AuctionHouse.sol:AuctionHouse",
            "label": "dateTime",
            "offset": 0,
            "slot": "2",
            "type": "t_uint256"
          }
        ],
        "numberOfBytes": "96"
      },
      "t_struct(GuardianInfo)4354_storage": {
        "encoding": "inplace",
        "label": "struct GuardianInfo",
        "members": [
          {
            "astId": 4342,
            "contract": "contracts/AuctionHouse.sol:AuctionHouse",
            "label": "name",
            "offset": 0,
            "slot": "0",
            "type": "t_string_storage"
          },
          {
            "astId": 4344,
            "contract": "contracts/AuctionHouse.sol:AuctionHouse",
            "label": "location",
            "offset": 0,
            "slot": "1",
            "type": "t_string_storage"
          },
          {
            "astId": 4349,
            "contract": "contracts/AuctionHouse.sol:AuctionHouse",
            "label": "items",
            "offset": 0,
            "slot": "2",
            "type": "t_mapping(t_uint256,t_struct(TokenInfo)4366_storage)"
          },
          {
            "astId": 4351,
            "contract": "contracts/AuctionHouse.sol:AuctionHouse",
            "label": "itemsCounter",
            "offset": 0,
            "slot": "3",
            "type": "t_uint256"
          },
          {
            "astId": 4353,
            "contract": "contracts/AuctionHouse.sol:AuctionHouse",
            "label": "stacking",
            "offset": 0,
            "slot": "4",
            "type": "t_uint256"
          }
        ],
        "numberOfBytes": "160"
      },
      "t_struct(Listing)4340_storage": {
        "encoding": "inplace",
        "label": "struct Listing",
        "members": [
          {
            "astId": 4324,
            "contract": "contracts/AuctionHouse.sol:AuctionHouse",
            "label": "seller",
            "offset": 0,
            "slot": "0",
            "type": "t_address"
          },
          {
            "astId": 4326,
            "contract": "contracts/AuctionHouse.sol:AuctionHouse",
            "label": "price",
            "offset": 0,
            "slot": "1",
            "type": "t_uint256"
          },
          {
            "astId": 4328,
            "contract": "contracts/AuctionHouse.sol:AuctionHouse",
            "label": "netPrice",
            "offset": 0,
            "slot": "2",
            "type": "t_uint256"
          },
          {
            "astId": 4331,
            "contract": "contracts/AuctionHouse.sol:AuctionHouse",
            "label": "status",
            "offset": 0,
            "slot": "3",
            "type": "t_enum(AuctionNftStatus)4322"
          },
          {
            "astId": 4333,
            "contract": "contracts/AuctionHouse.sol:AuctionHouse",
            "label": "startAt",
            "offset": 0,
            "slot": "4",
            "type": "t_uint256"
          },
          {
            "astId": 4335,
            "contract": "contracts/AuctionHouse.sol:AuctionHouse",
            "label": "endAt",
            "offset": 0,
            "slot": "5",
            "type": "t_uint256"
          },
          {
            "astId": 4339,
            "contract": "contracts/AuctionHouse.sol:AuctionHouse",
            "label": "bids",
            "offset": 0,
            "slot": "6",
            "type": "t_array(t_struct(Bid)4361_storage)dyn_storage"
          }
        ],
        "numberOfBytes": "224"
      },
      "t_struct(TokenInfo)4366_storage": {
        "encoding": "inplace",
        "label": "struct TokenInfo",
        "members": [
          {
            "astId": 4363,
            "contract": "contracts/AuctionHouse.sol:AuctionHouse",
            "label": "tokenId",
            "offset": 0,
            "slot": "0",
            "type": "t_uint256"
          },
          {
            "astId": 4365,
            "contract": "contracts/AuctionHouse.sol:AuctionHouse",
            "label": "isExisting",
            "offset": 0,
            "slot": "1",
            "type": "t_bool"
          }
        ],
        "numberOfBytes": "64"
      },
      "t_uint256": {
        "encoding": "inplace",
        "label": "uint256",
        "numberOfBytes": "32"
      }
    }
  }
}