{
  "_format": "hh-sol-artifact-1",
  "contractName": "AuctionNFT",
  "sourceName": "contracts/AuctionNFT.sol",
  "abi": [
    {
      "inputs": [
        {
          "internalType": "address",
          "name": "_auctionHouseAddress",
          "type": "address"
        }
      ],
      "stateMutability": "nonpayable",
      "type": "constructor"
    },
    {
      "anonymous": false,
      "inputs": [
        {
          "indexed": true,
          "internalType": "address",
          "name": "owner",
          "type": "address"
        },
        {
          "indexed": true,
          "internalType": "address",
          "name": "approved",
          "type": "address"
        },
        {
          "indexed": true,
          "internalType": "uint256",
          "name": "tokenId",
          "type": "uint256"
        }
      ],
      "name": "Approval",
      "type": "event"
    },
    {
      "anonymous": false,
      "inputs": [
        {
          "indexed": true,
          "internalType": "address",
          "name": "owner",
          "type": "address"
        },
        {
          "indexed": true,
          "internalType": "address",
          "name": "operator",
          "type": "address"
        },
        {
          "indexed": false,
          "internalType": "bool",
          "name": "approved",
          "type": "bool"
        }
      ],
      "name": "ApprovalForAll",
      "type": "event"
    },
    {
      "anonymous": false,
      "inputs": [
        {
          "indexed": false,
          "internalType": "uint256",
          "name": "_fromTokenId",
          "type": "uint256"
        },
        {
          "indexed": false,
          "internalType": "uint256",
          "name": "_toTokenId",
          "type": "uint256"
        }
      ],
      "name": "BatchMetadataUpdate",
      "type": "event"
    },
    {
      "anonymous": false,
      "inputs": [
        {
          "indexed": true,
          "internalType": "uint256",
          "name": "tokenId",
          "type": "uint256"
        },
        {
          "indexed": true,
          "internalType": "address",
          "name": "owner",
          "type": "address"
        },
        {
          "indexed": true,
          "internalType": "address",
          "name": "guardian",
          "type": "address"
        }
      ],
      "name": "Burned",
      "type": "event"
    },
    {
      "anonymous": false,
      "inputs": [
        {
          "indexed": false,
          "internalType": "uint256",
          "name": "_tokenId",
          "type": "uint256"
        }
      ],
      "name": "MetadataUpdate",
      "type": "event"
    },
    {
      "anonymous": false,
      "inputs": [
        {
          "indexed": true,
          "internalType": "uint256",
          "name": "tokenId",
          "type": "uint256"
        },
        {
          "indexed": true,
          "internalType": "address",
          "name": "owner",
          "type": "address"
        },
        {
          "indexed": true,
          "internalType": "address",
          "name": "guardian",
          "type": "address"
        }
      ],
      "name": "Minted",
      "type": "event"
    },
    {
      "anonymous": false,
      "inputs": [
        {
          "indexed": true,
          "internalType": "address",
          "name": "previousOwner",
          "type": "address"
        },
        {
          "indexed": true,
          "internalType": "address",
          "name": "newOwner",
          "type": "address"
        }
      ],
      "name": "OwnershipTransferred",
      "type": "event"
    },
    {
      "anonymous": false,
      "inputs": [
        {
          "indexed": true,
          "internalType": "address",
          "name": "from",
          "type": "address"
        },
        {
          "indexed": true,
          "internalType": "address",
          "name": "to",
          "type": "address"
        },
        {
          "indexed": true,
          "internalType": "uint256",
          "name": "tokenId",
          "type": "uint256"
        }
      ],
      "name": "Transfer",
      "type": "event"
    },
    {
      "inputs": [
        {
          "internalType": "address",
          "name": "to",
          "type": "address"
        },
        {
          "internalType": "uint256",
          "name": "tokenId",
          "type": "uint256"
        }
      ],
      "name": "approve",
      "outputs": [],
      "stateMutability": "nonpayable",
      "type": "function"
    },
    {
      "inputs": [
        {
          "internalType": "address",
          "name": "owner",
          "type": "address"
        }
      ],
      "name": "balanceOf",
      "outputs": [
        {
          "internalType": "uint256",
          "name": "",
          "type": "uint256"
        }
      ],
      "stateMutability": "view",
      "type": "function"
    },
    {
      "inputs": [
        {
          "internalType": "address",
          "name": "_owner",
          "type": "address"
        },
        {
          "internalType": "uint256",
          "name": "_tokenId",
          "type": "uint256"
        },
        {
          "internalType": "uint256",
          "name": "refundPrice",
          "type": "uint256"
        }
      ],
      "name": "breakBurn",
      "outputs": [],
      "stateMutability": "nonpayable",
      "type": "function"
    },
    {
      "inputs": [
        {
          "internalType": "address",
          "name": "_owner",
          "type": "address"
        },
        {
          "internalType": "uint256",
          "name": "_tokenId",
          "type": "uint256"
        }
      ],
      "name": "burn",
      "outputs": [],
      "stateMutability": "nonpayable",
      "type": "function"
    },
    {
      "inputs": [
        {
          "internalType": "uint256",
          "name": "tokenId",
          "type": "uint256"
        }
      ],
      "name": "getApproved",
      "outputs": [
        {
          "internalType": "address",
          "name": "",
          "type": "address"
        }
      ],
      "stateMutability": "view",
      "type": "function"
    },
    {
      "inputs": [
        {
          "internalType": "address",
          "name": "owner",
          "type": "address"
        },
        {
          "internalType": "address",
          "name": "operator",
          "type": "address"
        }
      ],
      "name": "isApprovedForAll",
      "outputs": [
        {
          "internalType": "bool",
          "name": "",
          "type": "bool"
        }
      ],
      "stateMutability": "view",
      "type": "function"
    },
    {
      "inputs": [
        {
          "internalType": "address",
          "name": "_owner",
          "type": "address"
        },
        {
          "internalType": "string",
          "name": "_tokenURI",
          "type": "string"
        }
      ],
      "name": "mint",
      "outputs": [],
      "stateMutability": "nonpayable",
      "type": "function"
    },
    {
      "inputs": [],
      "name": "name",
      "outputs": [
        {
          "internalType": "string",
          "name": "",
          "type": "string"
        }
      ],
      "stateMutability": "view",
      "type": "function"
    },
    {
      "inputs": [],
      "name": "owner",
      "outputs": [
        {
          "internalType": "address",
          "name": "",
          "type": "address"
        }
      ],
      "stateMutability": "view",
      "type": "function"
    },
    {
      "inputs": [
        {
          "internalType": "uint256",
          "name": "tokenId",
          "type": "uint256"
        }
      ],
      "name": "ownerOf",
      "outputs": [
        {
          "internalType": "address",
          "name": "",
          "type": "address"
        }
      ],
      "stateMutability": "view",
      "type": "function"
    },
    {
      "inputs": [],
      "name": "renounceOwnership",
      "outputs": [],
      "stateMutability": "nonpayable",
      "type": "function"
    },
    {
      "inputs": [],
      "name": "s_tokenCounter",
      "outputs": [
        {
          "internalType": "uint256",
          "name": "_value",
          "type": "uint256"
        }
      ],
      "stateMutability": "view",
      "type": "function"
    },
    {
      "inputs": [
        {
          "internalType": "address",
          "name": "from",
          "type": "address"
        },
        {
          "internalType": "address",
          "name": "to",
          "type": "address"
        },
        {
          "internalType": "uint256",
          "name": "tokenId",
          "type": "uint256"
        }
      ],
      "name": "safeTransferFrom",
      "outputs": [],
      "stateMutability": "nonpayable",
      "type": "function"
    },
    {
      "inputs": [
        {
          "internalType": "address",
          "name": "from",
          "type": "address"
        },
        {
          "internalType": "address",
          "name": "to",
          "type": "address"
        },
        {
          "internalType": "uint256",
          "name": "tokenId",
          "type": "uint256"
        },
        {
          "internalType": "bytes",
          "name": "data",
          "type": "bytes"
        }
      ],
      "name": "safeTransferFrom",
      "outputs": [],
      "stateMutability": "nonpayable",
      "type": "function"
    },
    {
      "inputs": [
        {
          "internalType": "address",
          "name": "operator",
          "type": "address"
        },
        {
          "internalType": "bool",
          "name": "approved",
          "type": "bool"
        }
      ],
      "name": "setApprovalForAll",
      "outputs": [],
      "stateMutability": "nonpayable",
      "type": "function"
    },
    {
      "inputs": [
        {
          "internalType": "address",
          "name": "_auctionHouseAddress",
          "type": "address"
        }
      ],
      "name": "setAuctionHouse",
      "outputs": [],
      "stateMutability": "nonpayable",
      "type": "function"
    },
    {
      "inputs": [
        {
          "internalType": "bytes4",
          "name": "interfaceId",
          "type": "bytes4"
        }
      ],
      "name": "supportsInterface",
      "outputs": [
        {
          "internalType": "bool",
          "name": "",
          "type": "bool"
        }
      ],
      "stateMutability": "view",
      "type": "function"
    },
    {
      "inputs": [],
      "name": "symbol",
      "outputs": [
        {
          "internalType": "string",
          "name": "",
          "type": "string"
        }
      ],
      "stateMutability": "view",
      "type": "function"
    },
    {
      "inputs": [
        {
          "internalType": "uint256",
          "name": "tokenId",
          "type": "uint256"
        }
      ],
      "name": "tokenURI",
      "outputs": [
        {
          "internalType": "string",
          "name": "",
          "type": "string"
        }
      ],
      "stateMutability": "view",
      "type": "function"
    },
    {
      "inputs": [
        {
          "internalType": "address",
          "name": "from",
          "type": "address"
        },
        {
          "internalType": "address",
          "name": "to",
          "type": "address"
        },
        {
          "internalType": "uint256",
          "name": "tokenId",
          "type": "uint256"
        }
      ],
      "name": "transferFrom",
      "outputs": [],
      "stateMutability": "nonpayable",
      "type": "function"
    },
    {
      "inputs": [
        {
          "internalType": "address",
          "name": "newOwner",
          "type": "address"
        }
      ],
      "name": "transferOwnership",
      "outputs": [],
      "stateMutability": "nonpayable",
      "type": "function"
    }
  ],
  "bytecode": "0x60806040523480156200001157600080fd5b5060405162003faf38038062003faf833981810160405281019062000037919062000327565b6040518060400160405280601181526020017f41756374696f6e204173736574204e46540000000000000000000000000000008152506040518060400160405280600381526020017f41414800000000000000000000000000000000000000000000000000000000008152508160009080519060200190620000bb9291906200020d565b508060019080519060200190620000d49291906200020d565b505050620000f7620000eb6200013f60201b60201c565b6200014760201b60201c565b80600960006101000a81548173ffffffffffffffffffffffffffffffffffffffff021916908373ffffffffffffffffffffffffffffffffffffffff16021790555050620003be565b600033905090565b6000600760009054906101000a900473ffffffffffffffffffffffffffffffffffffffff16905081600760006101000a81548173ffffffffffffffffffffffffffffffffffffffff021916908373ffffffffffffffffffffffffffffffffffffffff1602179055508173ffffffffffffffffffffffffffffffffffffffff168173ffffffffffffffffffffffffffffffffffffffff167f8be0079c531659141344cd1fd0a4f28419497f9722a3daafe3b4186f6b6457e060405160405180910390a35050565b8280546200021b9062000388565b90600052602060002090601f0160209004810192826200023f57600085556200028b565b82601f106200025a57805160ff19168380011785556200028b565b828001600101855582156200028b579182015b828111156200028a5782518255916020019190600101906200026d565b5b5090506200029a91906200029e565b5090565b5b80821115620002b95760008160009055506001016200029f565b5090565b600080fd5b600073ffffffffffffffffffffffffffffffffffffffff82169050919050565b6000620002ef82620002c2565b9050919050565b6200030181620002e2565b81146200030d57600080fd5b50565b6000815190506200032181620002f6565b92915050565b60006020828403121562000340576200033f620002bd565b5b6000620003508482850162000310565b91505092915050565b7f4e487b7100000000000000000000000000000000000000000000000000000000600052602260045260246000fd5b60006002820490506001821680620003a157607f821691505b60208210811415620003b857620003b762000359565b5b50919050565b613be180620003ce6000396000f3fe608060405234801561001057600080fd5b50600436106101375760003560e01c80638292ab3b116100b8578063b88d4fde1161007c578063b88d4fde14610326578063c87b56dd14610342578063d0def52114610372578063e76d89521461038e578063e985e9c5146103aa578063f2fde38b146103da57610137565b80638292ab3b146102965780638da5cb5b146102b257806395d89b41146102d05780639dc29fac146102ee578063a22cb4651461030a57610137565b806323b872dd116100ff57806323b872dd146101f457806342842e0e146102105780636352211e1461022c57806370a082311461025c578063715018a61461028c57610137565b806301ffc9a71461013c57806306fdde031461016c578063081812fc1461018a578063095ea7b3146101ba5780630b21a83b146101d6575b600080fd5b61015660048036038101906101519190612993565b6103f6565b60405161016391906129db565b60405180910390f35b610174610457565b6040516101819190612a8f565b60405180910390f35b6101a4600480360381019061019f9190612ae7565b6104e9565b6040516101b19190612b55565b60405180910390f35b6101d460048036038101906101cf9190612b9c565b61052f565b005b6101de610647565b6040516101eb9190612beb565b60405180910390f35b61020e60048036038101906102099190612c06565b610653565b005b61022a60048036038101906102259190612c06565b6106b3565b005b61024660048036038101906102419190612ae7565b6106d3565b6040516102539190612b55565b60405180910390f35b61027660048036038101906102719190612c59565b61075a565b6040516102839190612beb565b60405180910390f35b610294610812565b005b6102b060048036038101906102ab9190612c86565b610826565b005b6102ba610b8b565b6040516102c79190612b55565b60405180910390f35b6102d8610bb5565b6040516102e59190612a8f565b60405180910390f35b61030860048036038101906103039190612b9c565b610c47565b005b610324600480360381019061031f9190612d05565b61100b565b005b610340600480360381019061033b9190612e7a565b611021565b005b61035c60048036038101906103579190612ae7565b611083565b6040516103699190612a8f565b60405180910390f35b61038c60048036038101906103879190612f9e565b611196565b005b6103a860048036038101906103a39190612c59565b61139b565b005b6103c460048036038101906103bf9190612ffa565b6113e7565b6040516103d191906129db565b60405180910390f35b6103f460048036038101906103ef9190612c59565b61147b565b005b6000634906490660e01b7bffffffffffffffffffffffffffffffffffffffffffffffffffffffff1916827bffffffffffffffffffffffffffffffffffffffffffffffffffffffff19161480610450575061044f826114ff565b5b9050919050565b60606000805461046690613069565b80601f016020809104026020016040519081016040528092919081815260200182805461049290613069565b80156104df5780601f106104b4576101008083540402835291602001916104df565b820191906000526020600020905b8154815290600101906020018083116104c257829003601f168201915b5050505050905090565b60006104f4826115e1565b6004600083815260200190815260200160002060009054906101000a900473ffffffffffffffffffffffffffffffffffffffff169050919050565b600061053a826106d3565b90508073ffffffffffffffffffffffffffffffffffffffff168373ffffffffffffffffffffffffffffffffffffffff1614156105ab576040517f08c379a00000000000000000000000000000000000000000000000000000000081526004016105a29061310d565b60405180910390fd5b8073ffffffffffffffffffffffffffffffffffffffff166105ca61162c565b73ffffffffffffffffffffffffffffffffffffffff1614806105f957506105f8816105f361162c565b6113e7565b5b610638576040517f08c379a000000000000000000000000000000000000000000000000000000000815260040161062f9061319f565b60405180910390fd5b6106428383611634565b505050565b60088060000154905081565b61066461065e61162c565b826116ed565b6106a3576040517f08c379a000000000000000000000000000000000000000000000000000000000815260040161069a90613231565b60405180910390fd5b6106ae838383611782565b505050565b6106ce83838360405180602001604052806000815250611021565b505050565b6000806106df83611a7c565b9050600073ffffffffffffffffffffffffffffffffffffffff168173ffffffffffffffffffffffffffffffffffffffff161415610751576040517f08c379a00000000000000000000000000000000000000000000000000000000081526004016107489061329d565b60405180910390fd5b80915050919050565b60008073ffffffffffffffffffffffffffffffffffffffff168273ffffffffffffffffffffffffffffffffffffffff1614156107cb576040517f08c379a00000000000000000000000000000000000000000000000000000000081526004016107c29061332f565b60405180910390fd5b600360008373ffffffffffffffffffffffffffffffffffffffff1673ffffffffffffffffffffffffffffffffffffffff168152602001908152602001600020549050919050565b61081a611ab9565b6108246000611b37565b565b600960009054906101000a900473ffffffffffffffffffffffffffffffffffffffff1673ffffffffffffffffffffffffffffffffffffffff1663e2139def336040518263ffffffff1660e01b81526004016108819190612b55565b60206040518083038186803b15801561089957600080fd5b505afa1580156108ad573d6000803e3d6000fd5b505050506040513d601f19601f820116820180604052508101906108d19190613364565b610910576040517f08c379a0000000000000000000000000000000000000000000000000000000008152600401610907906133dd565b60405180910390fd5b81600960009054906101000a900473ffffffffffffffffffffffffffffffffffffffff1673ffffffffffffffffffffffffffffffffffffffff166348f85b0733836040518363ffffffff1660e01b815260040161096e9291906133fd565b60206040518083038186803b15801561098657600080fd5b505afa15801561099a573d6000803e3d6000fd5b505050506040513d601f19601f820116820180604052508101906109be9190613364565b6109fd576040517f08c379a00000000000000000000000000000000000000000000000000000000081526004016109f490613472565b60405180910390fd5b600960009054906101000a900473ffffffffffffffffffffffffffffffffffffffff1673ffffffffffffffffffffffffffffffffffffffff16633057ae7d846040518263ffffffff1660e01b8152600401610a589190612beb565b60206040518083038186803b158015610a7057600080fd5b505afa158015610a84573d6000803e3d6000fd5b505050506040513d601f19601f82011682018060405250810190610aa89190613364565b15610ae8576040517f08c379a0000000000000000000000000000000000000000000000000000000008152600401610adf906134de565b60405180910390fd5b600960009054906101000a900473ffffffffffffffffffffffffffffffffffffffff1673ffffffffffffffffffffffffffffffffffffffff166380d14b15338686866040518563ffffffff1660e01b8152600401610b4994939291906134fe565b600060405180830381600087803b158015610b6357600080fd5b505af1158015610b77573d6000803e3d6000fd5b50505050610b858484610c47565b50505050565b6000600760009054906101000a900473ffffffffffffffffffffffffffffffffffffffff16905090565b606060018054610bc490613069565b80601f0160208091040260200160405190810160405280929190818152602001828054610bf090613069565b8015610c3d5780601f10610c1257610100808354040283529160200191610c3d565b820191906000526020600020905b815481529060010190602001808311610c2057829003601f168201915b5050505050905090565b600960009054906101000a900473ffffffffffffffffffffffffffffffffffffffff1673ffffffffffffffffffffffffffffffffffffffff1663e2139def336040518263ffffffff1660e01b8152600401610ca29190612b55565b60206040518083038186803b158015610cba57600080fd5b505afa158015610cce573d6000803e3d6000fd5b505050506040513d601f19601f82011682018060405250810190610cf29190613364565b610d31576040517f08c379a0000000000000000000000000000000000000000000000000000000008152600401610d28906133dd565b60405180910390fd5b80600960009054906101000a900473ffffffffffffffffffffffffffffffffffffffff1673ffffffffffffffffffffffffffffffffffffffff166348f85b0733836040518363ffffffff1660e01b8152600401610d8f9291906133fd565b60206040518083038186803b158015610da757600080fd5b505afa158015610dbb573d6000803e3d6000fd5b505050506040513d601f19601f82011682018060405250810190610ddf9190613364565b610e1e576040517f08c379a0000000000000000000000000000000000000000000000000000000008152600401610e1590613472565b60405180910390fd5b600960009054906101000a900473ffffffffffffffffffffffffffffffffffffffff1673ffffffffffffffffffffffffffffffffffffffff16633057ae7d836040518263ffffffff1660e01b8152600401610e799190612beb565b60206040518083038186803b158015610e9157600080fd5b505afa158015610ea5573d6000803e3d6000fd5b505050506040513d601f19601f82011682018060405250810190610ec99190613364565b15610f09576040517f08c379a0000000000000000000000000000000000000000000000000000000008152600401610f00906134de565b60405180910390fd5b600960009054906101000a900473ffffffffffffffffffffffffffffffffffffffff1673ffffffffffffffffffffffffffffffffffffffff16636deea29c33846040518363ffffffff1660e01b8152600401610f669291906133fd565b600060405180830381600087803b158015610f8057600080fd5b505af1158015610f94573d6000803e3d6000fd5b50505050610fa182611bfd565b3373ffffffffffffffffffffffffffffffffffffffff168373ffffffffffffffffffffffffffffffffffffffff16837f833f00f23b7c4776a57db0824e65fc56ecf082120157008e19f70c7246a44b7760405160405180910390a46110066008611c50565b505050565b61101d61101661162c565b8383611cac565b5050565b61103261102c61162c565b836116ed565b611071576040517f08c379a000000000000000000000000000000000000000000000000000000000815260040161106890613231565b60405180910390fd5b61107d84848484611e19565b50505050565b606061108e826115e1565b60006006600084815260200190815260200160002080546110ae90613069565b80601f01602080910402602001604051908101604052809291908181526020018280546110da90613069565b80156111275780601f106110fc57610100808354040283529160200191611127565b820191906000526020600020905b81548152906001019060200180831161110a57829003601f168201915b505050505090506000611138611e75565b905060008151141561114e578192505050611191565b60008251111561118357808260405160200161116b92919061357f565b60405160208183030381529060405292505050611191565b61118c84611e8c565b925050505b919050565b600960009054906101000a900473ffffffffffffffffffffffffffffffffffffffff1673ffffffffffffffffffffffffffffffffffffffff1663e2139def336040518263ffffffff1660e01b81526004016111f19190612b55565b60206040518083038186803b15801561120957600080fd5b505afa15801561121d573d6000803e3d6000fd5b505050506040513d601f19601f820116820180604052508101906112419190613364565b611280576040517f08c379a0000000000000000000000000000000000000000000000000000000008152600401611277906133dd565b60405180910390fd5b600061128c6008611ef4565b90506112988382611f02565b6112a28183611f20565b3373ffffffffffffffffffffffffffffffffffffffff168373ffffffffffffffffffffffffffffffffffffffff16827f5758c4c0a4d007ca9768a0a574eedc39af88c4423f4ad0f8895b1b8fd1e7613360405160405180910390a4600960009054906101000a900473ffffffffffffffffffffffffffffffffffffffff1673ffffffffffffffffffffffffffffffffffffffff1663e096c7d933836040518363ffffffff1660e01b815260040161135a9291906133fd565b600060405180830381600087803b15801561137457600080fd5b505af1158015611388573d6000803e3d6000fd5b505050506113966008611fcb565b505050565b6113a3611ab9565b80600960006101000a81548173ffffffffffffffffffffffffffffffffffffffff021916908373ffffffffffffffffffffffffffffffffffffffff16021790555050565b6000600560008473ffffffffffffffffffffffffffffffffffffffff1673ffffffffffffffffffffffffffffffffffffffff16815260200190815260200160002060008373ffffffffffffffffffffffffffffffffffffffff1673ffffffffffffffffffffffffffffffffffffffff16815260200190815260200160002060009054906101000a900460ff16905092915050565b611483611ab9565b600073ffffffffffffffffffffffffffffffffffffffff168173ffffffffffffffffffffffffffffffffffffffff1614156114f3576040517f08c379a00000000000000000000000000000000000000000000000000000000081526004016114ea90613615565b60405180910390fd5b6114fc81611b37565b50565b60007f80ac58cd000000000000000000000000000000000000000000000000000000007bffffffffffffffffffffffffffffffffffffffffffffffffffffffff1916827bffffffffffffffffffffffffffffffffffffffffffffffffffffffff191614806115ca57507f5b5e139f000000000000000000000000000000000000000000000000000000007bffffffffffffffffffffffffffffffffffffffffffffffffffffffff1916827bffffffffffffffffffffffffffffffffffffffffffffffffffffffff1916145b806115da57506115d982611fe1565b5b9050919050565b6115ea8161204b565b611629576040517f08c379a00000000000000000000000000000000000000000000000000000000081526004016116209061329d565b60405180910390fd5b50565b600033905090565b816004600083815260200190815260200160002060006101000a81548173ffffffffffffffffffffffffffffffffffffffff021916908373ffffffffffffffffffffffffffffffffffffffff160217905550808273ffffffffffffffffffffffffffffffffffffffff166116a7836106d3565b73ffffffffffffffffffffffffffffffffffffffff167f8c5be1e5ebec7d5bd14f71427d1e84f3dd0314c0f7b2291e5b200ac8c7c3b92560405160405180910390a45050565b6000806116f9836106d3565b90508073ffffffffffffffffffffffffffffffffffffffff168473ffffffffffffffffffffffffffffffffffffffff16148061173b575061173a81856113e7565b5b8061177957508373ffffffffffffffffffffffffffffffffffffffff16611761846104e9565b73ffffffffffffffffffffffffffffffffffffffff16145b91505092915050565b8273ffffffffffffffffffffffffffffffffffffffff166117a2826106d3565b73ffffffffffffffffffffffffffffffffffffffff16146117f8576040517f08c379a00000000000000000000000000000000000000000000000000000000081526004016117ef906136a7565b60405180910390fd5b600073ffffffffffffffffffffffffffffffffffffffff168273ffffffffffffffffffffffffffffffffffffffff161415611868576040517f08c379a000000000000000000000000000000000000000000000000000000000815260040161185f90613739565b60405180910390fd5b611875838383600161208c565b8273ffffffffffffffffffffffffffffffffffffffff16611895826106d3565b73ffffffffffffffffffffffffffffffffffffffff16146118eb576040517f08c379a00000000000000000000000000000000000000000000000000000000081526004016118e2906136a7565b60405180910390fd5b6004600082815260200190815260200160002060006101000a81549073ffffffffffffffffffffffffffffffffffffffff02191690556001600360008573ffffffffffffffffffffffffffffffffffffffff1673ffffffffffffffffffffffffffffffffffffffff168152602001908152602001600020600082825403925050819055506001600360008473ffffffffffffffffffffffffffffffffffffffff1673ffffffffffffffffffffffffffffffffffffffff16815260200190815260200160002060008282540192505081905550816002600083815260200190815260200160002060006101000a81548173ffffffffffffffffffffffffffffffffffffffff021916908373ffffffffffffffffffffffffffffffffffffffff160217905550808273ffffffffffffffffffffffffffffffffffffffff168473ffffffffffffffffffffffffffffffffffffffff167fddf252ad1be2c89b69c2b068fc378daa952ba7f163c4a11628f55a4df523b3ef60405160405180910390a4611a778383836001612092565b505050565b60006002600083815260200190815260200160002060009054906101000a900473ffffffffffffffffffffffffffffffffffffffff169050919050565b611ac161162c565b73ffffffffffffffffffffffffffffffffffffffff16611adf610b8b565b73ffffffffffffffffffffffffffffffffffffffff1614611b35576040517f08c379a0000000000000000000000000000000000000000000000000000000008152600401611b2c906137a5565b60405180910390fd5b565b6000600760009054906101000a900473ffffffffffffffffffffffffffffffffffffffff16905081600760006101000a81548173ffffffffffffffffffffffffffffffffffffffff021916908373ffffffffffffffffffffffffffffffffffffffff1602179055508173ffffffffffffffffffffffffffffffffffffffff168173ffffffffffffffffffffffffffffffffffffffff167f8be0079c531659141344cd1fd0a4f28419497f9722a3daafe3b4186f6b6457e060405160405180910390a35050565b611c0681612098565b6000600660008381526020019081526020016000208054611c2690613069565b905014611c4d57600660008281526020019081526020016000206000611c4c9190612844565b5b50565b60008160000154905060008111611c9c576040517f08c379a0000000000000000000000000000000000000000000000000000000008152600401611c9390613811565b60405180910390fd5b6001810382600001819055505050565b8173ffffffffffffffffffffffffffffffffffffffff168373ffffffffffffffffffffffffffffffffffffffff161415611d1b576040517f08c379a0000000000000000000000000000000000000000000000000000000008152600401611d129061387d565b60405180910390fd5b80600560008573ffffffffffffffffffffffffffffffffffffffff1673ffffffffffffffffffffffffffffffffffffffff16815260200190815260200160002060008473ffffffffffffffffffffffffffffffffffffffff1673ffffffffffffffffffffffffffffffffffffffff16815260200190815260200160002060006101000a81548160ff0219169083151502179055508173ffffffffffffffffffffffffffffffffffffffff168373ffffffffffffffffffffffffffffffffffffffff167f17307eab39ab6107e8899845ad3d59bd9653f200f220920489ca2b5937696c3183604051611e0c91906129db565b60405180910390a3505050565b611e24848484611782565b611e30848484846121e6565b611e6f576040517f08c379a0000000000000000000000000000000000000000000000000000000008152600401611e669061390f565b60405180910390fd5b50505050565b606060405180602001604052806000815250905090565b6060611e97826115e1565b6000611ea1611e75565b90506000815111611ec15760405180602001604052806000815250611eec565b80611ecb8461237d565b604051602001611edc92919061357f565b6040516020818303038152906040525b915050919050565b600081600001549050919050565b611f1c828260405180602001604052806000815250612455565b5050565b611f298261204b565b611f68576040517f08c379a0000000000000000000000000000000000000000000000000000000008152600401611f5f906139a1565b60405180910390fd5b80600660008481526020019081526020016000209080519060200190611f8f929190612884565b507ff8e1a15aba9398e019f0b49df1a4fde98ee17ae345cb5f6b5e2c27f5033e8ce782604051611fbf9190612beb565b60405180910390a15050565b6001816000016000828254019250508190555050565b60007f01ffc9a7000000000000000000000000000000000000000000000000000000007bffffffffffffffffffffffffffffffffffffffffffffffffffffffff1916827bffffffffffffffffffffffffffffffffffffffffffffffffffffffff1916149050919050565b60008073ffffffffffffffffffffffffffffffffffffffff1661206d83611a7c565b73ffffffffffffffffffffffffffffffffffffffff1614159050919050565b50505050565b50505050565b60006120a3826106d3565b90506120b381600084600161208c565b6120bc826106d3565b90506004600083815260200190815260200160002060006101000a81549073ffffffffffffffffffffffffffffffffffffffff02191690556001600360008373ffffffffffffffffffffffffffffffffffffffff1673ffffffffffffffffffffffffffffffffffffffff168152602001908152602001600020600082825403925050819055506002600083815260200190815260200160002060006101000a81549073ffffffffffffffffffffffffffffffffffffffff021916905581600073ffffffffffffffffffffffffffffffffffffffff168273ffffffffffffffffffffffffffffffffffffffff167fddf252ad1be2c89b69c2b068fc378daa952ba7f163c4a11628f55a4df523b3ef60405160405180910390a46121e2816000846001612092565b5050565b60006122078473ffffffffffffffffffffffffffffffffffffffff166124b0565b15612370578373ffffffffffffffffffffffffffffffffffffffff1663150b7a0261223061162c565b8786866040518563ffffffff1660e01b81526004016122529493929190613a16565b602060405180830381600087803b15801561226c57600080fd5b505af192505050801561229d57506040513d601f19601f8201168201806040525081019061229a9190613a77565b60015b612320573d80600081146122cd576040519150601f19603f3d011682016040523d82523d6000602084013e6122d2565b606091505b50600081511415612318576040517f08c379a000000000000000000000000000000000000000000000000000000000815260040161230f9061390f565b60405180910390fd5b805181602001fd5b63150b7a0260e01b7bffffffffffffffffffffffffffffffffffffffffffffffffffffffff1916817bffffffffffffffffffffffffffffffffffffffffffffffffffffffff191614915050612375565b600190505b949350505050565b60606000600161238c846124d3565b01905060008167ffffffffffffffff8111156123ab576123aa612d4f565b5b6040519080825280601f01601f1916602001820160405280156123dd5781602001600182028036833780820191505090505b509050600082602001820190505b60011561244a578080600190039150507f3031323334353637383961626364656600000000000000000000000000000000600a86061a8153600a858161243457612433613aa4565b5b04945060008514156124455761244a565b6123eb565b819350505050919050565b61245f8383612626565b61246c60008484846121e6565b6124ab576040517f08c379a00000000000000000000000000000000000000000000000000000000081526004016124a29061390f565b60405180910390fd5b505050565b6000808273ffffffffffffffffffffffffffffffffffffffff163b119050919050565b600080600090507a184f03e93ff9f4daa797ed6e38ed64bf6a1f0100000000000000008310612531577a184f03e93ff9f4daa797ed6e38ed64bf6a1f010000000000000000838161252757612526613aa4565b5b0492506040810190505b6d04ee2d6d415b85acef8100000000831061256e576d04ee2d6d415b85acef8100000000838161256457612563613aa4565b5b0492506020810190505b662386f26fc10000831061259d57662386f26fc10000838161259357612592613aa4565b5b0492506010810190505b6305f5e10083106125c6576305f5e10083816125bc576125bb613aa4565b5b0492506008810190505b61271083106125eb5761271083816125e1576125e0613aa4565b5b0492506004810190505b6064831061260e576064838161260457612603613aa4565b5b0492506002810190505b600a831061261d576001810190505b80915050919050565b600073ffffffffffffffffffffffffffffffffffffffff168273ffffffffffffffffffffffffffffffffffffffff161415612696576040517f08c379a000000000000000000000000000000000000000000000000000000000815260040161268d90613b1f565b60405180910390fd5b61269f8161204b565b156126df576040517f08c379a00000000000000000000000000000000000000000000000000000000081526004016126d690613b8b565b60405180910390fd5b6126ed60008383600161208c565b6126f68161204b565b15612736576040517f08c379a000000000000000000000000000000000000000000000000000000000815260040161272d90613b8b565b60405180910390fd5b6001600360008473ffffffffffffffffffffffffffffffffffffffff1673ffffffffffffffffffffffffffffffffffffffff16815260200190815260200160002060008282540192505081905550816002600083815260200190815260200160002060006101000a81548173ffffffffffffffffffffffffffffffffffffffff021916908373ffffffffffffffffffffffffffffffffffffffff160217905550808273ffffffffffffffffffffffffffffffffffffffff16600073ffffffffffffffffffffffffffffffffffffffff167fddf252ad1be2c89b69c2b068fc378daa952ba7f163c4a11628f55a4df523b3ef60405160405180910390a4612840600083836001612092565b5050565b50805461285090613069565b6000825580601f106128625750612881565b601f016020900490600052602060002090810190612880919061290a565b5b50565b82805461289090613069565b90600052602060002090601f0160209004810192826128b257600085556128f9565b82601f106128cb57805160ff19168380011785556128f9565b828001600101855582156128f9579182015b828111156128f85782518255916020019190600101906128dd565b5b509050612906919061290a565b5090565b5b8082111561292357600081600090555060010161290b565b5090565b6000604051905090565b600080fd5b600080fd5b60007fffffffff0000000000000000000000000000000000000000000000000000000082169050919050565b6129708161293b565b811461297b57600080fd5b50565b60008135905061298d81612967565b92915050565b6000602082840312156129a9576129a8612931565b5b60006129b78482850161297e565b91505092915050565b60008115159050919050565b6129d5816129c0565b82525050565b60006020820190506129f060008301846129cc565b92915050565b600081519050919050565b600082825260208201905092915050565b60005b83811015612a30578082015181840152602081019050612a15565b83811115612a3f576000848401525b50505050565b6000601f19601f8301169050919050565b6000612a61826129f6565b612a6b8185612a01565b9350612a7b818560208601612a12565b612a8481612a45565b840191505092915050565b60006020820190508181036000830152612aa98184612a56565b905092915050565b6000819050919050565b612ac481612ab1565b8114612acf57600080fd5b50565b600081359050612ae181612abb565b92915050565b600060208284031215612afd57612afc612931565b5b6000612b0b84828501612ad2565b91505092915050565b600073ffffffffffffffffffffffffffffffffffffffff82169050919050565b6000612b3f82612b14565b9050919050565b612b4f81612b34565b82525050565b6000602082019050612b6a6000830184612b46565b92915050565b612b7981612b34565b8114612b8457600080fd5b50565b600081359050612b9681612b70565b92915050565b60008060408385031215612bb357612bb2612931565b5b6000612bc185828601612b87565b9250506020612bd285828601612ad2565b9150509250929050565b612be581612ab1565b82525050565b6000602082019050612c006000830184612bdc565b92915050565b600080600060608486031215612c1f57612c1e612931565b5b6000612c2d86828701612b87565b9350506020612c3e86828701612b87565b9250506040612c4f86828701612ad2565b9150509250925092565b600060208284031215612c6f57612c6e612931565b5b6000612c7d84828501612b87565b91505092915050565b600080600060608486031215612c9f57612c9e612931565b5b6000612cad86828701612b87565b9350506020612cbe86828701612ad2565b9250506040612ccf86828701612ad2565b9150509250925092565b612ce2816129c0565b8114612ced57600080fd5b50565b600081359050612cff81612cd9565b92915050565b60008060408385031215612d1c57612d1b612931565b5b6000612d2a85828601612b87565b9250506020612d3b85828601612cf0565b9150509250929050565b600080fd5b600080fd5b7f4e487b7100000000000000000000000000000000000000000000000000000000600052604160045260246000fd5b612d8782612a45565b810181811067ffffffffffffffff82111715612da657612da5612d4f565b5b80604052505050565b6000612db9612927565b9050612dc58282612d7e565b919050565b600067ffffffffffffffff821115612de557612de4612d4f565b5b612dee82612a45565b9050602081019050919050565b82818337600083830152505050565b6000612e1d612e1884612dca565b612daf565b905082815260208101848484011115612e3957612e38612d4a565b5b612e44848285612dfb565b509392505050565b600082601f830112612e6157612e60612d45565b5b8135612e71848260208601612e0a565b91505092915050565b60008060008060808587031215612e9457612e93612931565b5b6000612ea287828801612b87565b9450506020612eb387828801612b87565b9350506040612ec487828801612ad2565b925050606085013567ffffffffffffffff811115612ee557612ee4612936565b5b612ef187828801612e4c565b91505092959194509250565b600067ffffffffffffffff821115612f1857612f17612d4f565b5b612f2182612a45565b9050602081019050919050565b6000612f41612f3c84612efd565b612daf565b905082815260208101848484011115612f5d57612f5c612d4a565b5b612f68848285612dfb565b509392505050565b600082601f830112612f8557612f84612d45565b5b8135612f95848260208601612f2e565b91505092915050565b60008060408385031215612fb557612fb4612931565b5b6000612fc385828601612b87565b925050602083013567ffffffffffffffff811115612fe457612fe3612936565b5b612ff085828601612f70565b9150509250929050565b6000806040838503121561301157613010612931565b5b600061301f85828601612b87565b925050602061303085828601612b87565b9150509250929050565b7f4e487b7100000000000000000000000000000000000000000000000000000000600052602260045260246000fd5b6000600282049050600182168061308157607f821691505b602082108114156130955761309461303a565b5b50919050565b7f4552433732313a20617070726f76616c20746f2063757272656e74206f776e6560008201527f7200000000000000000000000000000000000000000000000000000000000000602082015250565b60006130f7602183612a01565b91506131028261309b565b604082019050919050565b60006020820190508181036000830152613126816130ea565b9050919050565b7f4552433732313a20617070726f76652063616c6c6572206973206e6f7420746f60008201527f6b656e206f776e6572206f7220617070726f76656420666f7220616c6c000000602082015250565b6000613189603d83612a01565b91506131948261312d565b604082019050919050565b600060208201905081810360008301526131b88161317c565b9050919050565b7f4552433732313a2063616c6c6572206973206e6f7420746f6b656e206f776e6560008201527f72206f7220617070726f76656400000000000000000000000000000000000000602082015250565b600061321b602d83612a01565b9150613226826131bf565b604082019050919050565b6000602082019050818103600083015261324a8161320e565b9050919050565b7f4552433732313a20696e76616c696420746f6b656e2049440000000000000000600082015250565b6000613287601883612a01565b915061329282613251565b602082019050919050565b600060208201905081810360008301526132b68161327a565b9050919050565b7f4552433732313a2061646472657373207a65726f206973206e6f74206120766160008201527f6c6964206f776e65720000000000000000000000000000000000000000000000602082015250565b6000613319602983612a01565b9150613324826132bd565b604082019050919050565b600060208201905081810360008301526133488161330c565b9050919050565b60008151905061335e81612cd9565b92915050565b60006020828403121561337a57613379612931565b5b60006133888482850161334f565b91505092915050565b7f726571756972646520677561726469616e000000000000000000000000000000600082015250565b60006133c7601183612a01565b91506133d282613391565b602082019050919050565b600060208201905081810360008301526133f6816133ba565b9050919050565b60006040820190506134126000830185612b46565b61341f6020830184612bdc565b9392505050565b7f6173736574206e6f7420696e20677561726469616e0000000000000000000000600082015250565b600061345c601583612a01565b915061346782613426565b602082019050919050565b6000602082019050818103600083015261348b8161344f565b9050919050565b7f6974656d206973206c697374696e670000000000000000000000000000000000600082015250565b60006134c8600f83612a01565b91506134d382613492565b602082019050919050565b600060208201905081810360008301526134f7816134bb565b9050919050565b60006080820190506135136000830187612b46565b6135206020830186612b46565b61352d6040830185612bdc565b61353a6060830184612bdc565b95945050505050565b600081905092915050565b6000613559826129f6565b6135638185613543565b9350613573818560208601612a12565b80840191505092915050565b600061358b828561354e565b9150613597828461354e565b91508190509392505050565b7f4f776e61626c653a206e6577206f776e657220697320746865207a65726f206160008201527f6464726573730000000000000000000000000000000000000000000000000000602082015250565b60006135ff602683612a01565b915061360a826135a3565b604082019050919050565b6000602082019050818103600083015261362e816135f2565b9050919050565b7f4552433732313a207472616e736665722066726f6d20696e636f72726563742060008201527f6f776e6572000000000000000000000000000000000000000000000000000000602082015250565b6000613691602583612a01565b915061369c82613635565b604082019050919050565b600060208201905081810360008301526136c081613684565b9050919050565b7f4552433732313a207472616e7366657220746f20746865207a65726f2061646460008201527f7265737300000000000000000000000000000000000000000000000000000000602082015250565b6000613723602483612a01565b915061372e826136c7565b604082019050919050565b6000602082019050818103600083015261375281613716565b9050919050565b7f4f776e61626c653a2063616c6c6572206973206e6f7420746865206f776e6572600082015250565b600061378f602083612a01565b915061379a82613759565b602082019050919050565b600060208201905081810360008301526137be81613782565b9050919050565b7f436f756e7465723a2064656372656d656e74206f766572666c6f770000000000600082015250565b60006137fb601b83612a01565b9150613806826137c5565b602082019050919050565b6000602082019050818103600083015261382a816137ee565b9050919050565b7f4552433732313a20617070726f766520746f2063616c6c657200000000000000600082015250565b6000613867601983612a01565b915061387282613831565b602082019050919050565b600060208201905081810360008301526138968161385a565b9050919050565b7f4552433732313a207472616e7366657220746f206e6f6e20455243373231526560008201527f63656976657220696d706c656d656e7465720000000000000000000000000000602082015250565b60006138f9603283612a01565b91506139048261389d565b604082019050919050565b60006020820190508181036000830152613928816138ec565b9050919050565b7f45524337323155524953746f726167653a2055524920736574206f66206e6f6e60008201527f6578697374656e7420746f6b656e000000000000000000000000000000000000602082015250565b600061398b602e83612a01565b91506139968261392f565b604082019050919050565b600060208201905081810360008301526139ba8161397e565b9050919050565b600081519050919050565b600082825260208201905092915050565b60006139e8826139c1565b6139f281856139cc565b9350613a02818560208601612a12565b613a0b81612a45565b840191505092915050565b6000608082019050613a2b6000830187612b46565b613a386020830186612b46565b613a456040830185612bdc565b8181036060830152613a5781846139dd565b905095945050505050565b600081519050613a7181612967565b92915050565b600060208284031215613a8d57613a8c612931565b5b6000613a9b84828501613a62565b91505092915050565b7f4e487b7100000000000000000000000000000000000000000000000000000000600052601260045260246000fd5b7f4552433732313a206d696e7420746f20746865207a65726f2061646472657373600082015250565b6000613b09602083612a01565b9150613b1482613ad3565b602082019050919050565b60006020820190508181036000830152613b3881613afc565b9050919050565b7f4552433732313a20746f6b656e20616c7265616479206d696e74656400000000600082015250565b6000613b75601c83612a01565b9150613b8082613b3f565b602082019050919050565b60006020820190508181036000830152613ba481613b68565b905091905056fea264697066735822122059fe292f1c916b05feb2e030d68e2b9596a8291ea9c0278cf5974d559c896d5a64736f6c63430008080033",
  "linkReferences": {},
  "deployedLinkReferences": {}
}